:040000000C944D000F
:100004000C9400000C9400000C9400000C9400006C
:100014000C9400000C9400000C9400000C9400005C
:100024000C9400000C9400000C9400000C9400004C
:100034000C9400000C9400000C9400000C947C00C0
:100044000C9400000C9400000C9400000C9400002C
:1000540000000000496E28302D31303233293A0037
:100064002000496E28302D335633293A0000010010
:100074002D4E414E00494E46000080C02D4E414E4B
:100084000000040004005400010068027200020031
:100094006C027E000000F894EE27ECBBF1E0F5BFA3
:1000A400E5BFF8E1F1BDE1BD8DE0A2E0BB27ED9332
:1000B4008A95E9F780E098E0A0E6ED930197E9F7E7
:1000C400E6E8F0E085919591009761F0A591B591EE
:1000D40005901590BF01F00105900D920197E1F78D
:1000E400FB01F0CFEFE5EDBFE8E0EEBFC0E6D2E004
:1000F4000C94E400AA93BA93EA93FA93EFB7EA93C1
:100104000E94220319F044B055B002C045B05524F2
:10011400E1E07E2EE991EFBFF991E991B991A991BE
:100124001895E6B1E87FE460E6B9E7B1EF73E7B9A3
:10013400E7B1EF7DE7B93398E0B7EF71E0BF3598E9
:10014400379A36980895AA93E6B1E078F0E00E94D1
:10015400AF030E94AD03309701F1E7B1E07EA881BF
:10016400EA2BE7B983E08A95F1F7369AE6B1E071B4
:10017400F0E00E94AD03A1E0B0E0EA27FB2730974E
:10018400A9F7349A0E94220321F0E4B1F5B10C944A
:10019400CB02E5B1F0E00C94CB02E0E0F0E00C948B
:1001A400CB020E942F0308C00E942F03A0E0B0E0FE
:1001B4008AE794E40E94D6040E94C5030E94500377
:1001C400259608954AD0ADDFA7E0BDDF2F01A7E053
:1001D400EBDFE0936002F09361026093620270933C
:1001E4006302A7E0DEDFE0936402F09365026093AC
:1001F40066027093670206D0AAEFB0E00E948805F9
:10020400E3CFFFCF60975A924A92DE0112960E9482
:100214003501E0E0EA93A0E00E945002A8E5B0E0D6
:100224000E945303E0916402F091650260916602BA
:10023400709167020E94CA03E3E0EA93DE01159617
:100244000E946301E0E0EA93A1E00E945002A6E666
:10025400B0E00E94530360960895A0E10E94A002BA
:100264000E945D020895BA93AA93A991B991E99164
:10027400F99130962AF4E095F09531966DE26D93FC
:10028400E89480E197E20DD088EE93E00AD084E60A
:10029400992707D08AE005D06E2F10D066276C937B
:1002A40008956627E817F90720F06395E81BF90B12
:1002B400C9F7662311F416F008956894605D6D9390
:1002C4000895BA93AA932497E0E0E883E983EA8344
:1002D400EFE3EB831A930A93EB85FC85EF3FAFEFD3
:1002E400FA0739F40E945C03A4E7B0E00E94150306
:1002F400B1C0EF3FAFE7FA0739F40E945C03A5E70A
:10030400B0E00E941503A6C0AC85AA2362F4E98577
:10031400FA856B857C850E94E1030E9461030E943B
:100324006603EDE2EC93A885A73010F0E6E0E887D9
:100334001885E12F1150E03039F00E946D030E94BE
:1003440072030E947903F5CF0E947E030E94870402
:100354000E94610310E0E0E0F0E060E87FE30E94C7
:1003640079030E947E030E94680588F00E946D0351
:100374000E9487030E9479031F5F173238F00E949E
:100384005C03A9E7B0E00E94150364C0EACF103013
:1003940029F40E946603E0E3EC932FC0E12F11508F
:1003A400E03059F10E946D030E947203A0E0B0E0B6
:1003B40080E09FE30E948704DF01CB010E94FE02DC
:1003C4000E9479030E947E030E9424050E94140463
:1003D4000E2F0E946603E02FE05DEC93E02FF0E027
:1003E4000E946D030E94B6030E944D040E94D6042D
:1003F4000E948E030E949303D1CFE885E03031F14F
:100404000E946603EEE2EC93E885E150E887EF5F33
:10041400E9F00E948E030E9487030E946103E9852C
:10042400FA856B857C850E9414040E2F0E94660356
:10043400E02FE05DEC93E02FF0E00E948E030E9439
:10044400B6030E944D040E949303DECFAE81BF81A8
:10045400E0E0EC93198108812D960895AA93E2B304
:10046400EF70AE2FE881E07FEA2BE2BB82E08A9551
:10047400F1F7929A82E08A95F1F7929882E08A9550
:10048400F1F787C0AA93A881E9DFE881E295E883C0
:10049400A881E4DF81E18A95F1F77BC0AA93E88122
:1004A400F0E0E459FD4FE081A981AE0FEBDF6980F4
:1004B400988022960895A2E00E949803ACE0E2DFBF
:1004C400A1E00E949803E0E09E2E6E2E0895AA9368
:1004D400A881AA3011F0681448F0E0E0EA939394FC
:1004E400A92DDCDFA881AA3009F453C06394909A43
:1004F400A881C8DF90984DC0BA93AA931A93A98192
:10050400BA81ED91A983BA831E2FE03019F0A12F8F
:10051400DEDFF5CF10C0BA93AA931A93E981FA816A
:100524003196E983FA833197E4911E2FE03019F074
:10053400A12FCDDFF3CF188123960895AA93E1B3B9
:10054400E06FE1BB8A9A889A899A929890989198D8
:100554008880E881E058E0936E02E881E054E093FB
:100564006F02A4E1B0E00E9488050E949E030E94ED
:100574009E030E949E03A0E271DF81E28A95F1F757
:10058400A8E280DFA4E07EDFA5E87CDFA6E07ADFD6
:1005940092DF219608950E94CF037B816A81F981BD
:1005A400E88177FB770F67FD7160972F9E5781F085
:1005B40078F0983190F4AA27BB2788270894879568
:1005C400B795A7959A95D1F7EA23FB23682305C02D
:1005D400E8947727EE27FF2766276F77769508F448
:1005E400606877F9A991B99189919991EA17FB0704
:1005F4006807790797FB08950E94CF030E94C00300
:100604000E94CD020E94C50319F40E94500309C040
:10061400E6F70E945003A0E0B0E080E89FE30E9468
:10062400800424960895BA93AA93E991F991A99123
:10063400B991CD0105900D920020E1F7FC010895D8
:10064400E7B1E072F0E0F595E7950E94AD03A1E013
:10065400B0E0EA27FB2730970895AA932497E0E0B7
:10066400E883E983EA83EB83AC810E94A5006627D3
:1006740077270E944D040E94C5030E94C003E3E350
:10068400F3E363E570E40E94D604DF01CB01E0E00C
:10069400F0EC6FE774E40E94240508950E94BB0304
:1006A40008950E948D02DE010E947E02A4E6B0E05D
:1006B4000C948D02EE81FF81FA93EA930895E98701
:1006C400FA876B877C870895AE81BF811196AE83CC
:1006D400BF8311970895AA81BB818C819D81089560
:1006E400EDECFCEC6CEC7DE30E94D6040895EA8307
:1006F400FB836C837D830895EA81FB816C817D811A
:10070400A985BA858B859C850895E0E0F0E060E2D8
:1007140071E40E94D6040895A985BA858B859C85C9
:1007240008950E94D4030E948004C9CF0E94440209
:10073400A3E0B0E00C948805A0E30E94300281E2BB
:100744008A95F1F70895F09560957095E195FF4FBE
:100754006F4F7F4F0895F595E795F595E795F595D6
:10076400E795F595E79508956F2F660F660B762F3D
:100774000895E881F9816A817B810895A881B9810E
:100784008A819B810895E883F9836A837B83089532
:100794007A936A93FA93EA9308959A938A93BA930D
:1007A400AA930895182E862F612D192E972F712D37
:1007B4001B2EBF2FF12D1A2EAE2FE12D0895309749
:1007C4006040704009F070580895552342F4503841
:1007D40011F4E0FF04C03196691F791F6BF050E8F3
:1007E400572711F45F93CFC05F3F31F0660F000CC1
:1007F40057956795752F08955F9300200AF0CEC032
:10080400C7C050E8192E1522880F991F9527550F38
:10081400879550E8072E0522660F771F7527550F19
:1008240067950895689401C0E8945F93F2DF703887
:1008340018F07F3F08F4A7C056E1571BAAF451955E
:1008440058300EF4593030F0EFEFFFEF6FEF7FE7E1
:1008540077F91AC077275523B9F0EE0FFF1F661FEB
:10086400771F5A95D1F710C07727583028F0EF2F0B
:10087400F62F672F5850F9CF552331F076956795A9
:10088400F795E7955A95D1F700200AF45CDF5F915C
:100894000895689401C0E894309760407040B1F0C6
:1008A400002426F0772312F400944DDF172E7EE106
:1008B400112032F07A95EE0FFF1F661F111CF9CF3D
:1008C400EF2FF62F612D5F938ADF5F9108954F9389
:1008D400AF01FD01DA01AB01BC01CA01402D012CBD
:1008E400142E4F910895EA0FFB1F681F0895E09599
:1008F400F0956095EF5FFF4F6F4F08955F9381DF31
:10090400903871F150E8152604C05F937ADF90386F
:1009140039F1703821F1572F591B2BF112F4D7DF1D
:10092400FACF583118F0AA27BB278827583028F067
:10093400AB2FB82F88275850F9CF552329F0869527
:10094400B795A7955A95D9F7502D512572F0CBDF5D
:1009540038F46795F795E795739513F41FC0B7DFDF
:100964003EDF5F910895D8F7FBCFEA1BFB0B680BC2
:1009740051F010F40094BBDF662392F3EE0FFF1FD7
:10098400661F7A95CBF7EE27FF27BF015F91089585
:10099400EFEFFFEF6FE77FEF5F910895EFEFFFEF6A
:1009A4006FE77FE75F9108955F932BDF703859F30A
:1009B400903849F301240894791F23F424F3002088
:1009C4003AF3ECCF0F921F932F933F934F9311273A
:1009D40022279927689FA0018F9F302D410D591F11
:1009E4006B9F300D411D591F8E9F27D0BF9F25D06F
:1009F4006A9F23D0BE9F1DD0AF9F1BD0AE9F110D09
:100A0400291F391F491F591FE32FF42F652F522F18
:100A14004F913F912F911F910F9066232AF0550F0C
:100A2400EE1FFF1F661F02C073954BF2CEDE5F916F
:100A34000895100D211D391F02C0200D311D491FBD
:100A4400591F08955F93DDDE703821F411200AF4F4
:100A54009FCFA4CF903809F496CF01240894970B24
:100A64001BF4D4F30020F3CF792F1F932F933F93DC
:100A74004F931124112722273327A90190E2AE179F
:100A8400BF078607410730F0AE1BBF0B860B410B37
:100A9400089401C08894551F221F331F111CAA1FDC
:100AA400BB1F881F441F9A9551F7F901612D4F917F
:100AB4003F912F911F91662332F0550FEE1FFF1FB8
:100AC400661F7A954BF281DE5F91089599239AF01F
:100AD400772342F0971748F029F4AE17BF0786072B
:100AE40020F031F098948894089598940894089587
:100AF4001894889408957723C2F7971798F3A9F761
:100B0400EA17FB07680788F399F3ECCF109639F0DE
:100B1400A8958AEF90E00197F1F71197C9F7089526
:00000001FF
