:080000000C9436000C94000082
:100008000C9400000C9400000C9400000C94000068
:100018000C9400000C9400000C9400000C94000058
:100028000C9400000C9400000C9400000C94000048
:100038000C9400000C9400000C9400000C94000038
:100048000C9400000C9400000C9400003F065B4FD9
:10005800666D7D077F6F777C395E79717638507869
:100068003E000040F894EE27ECBBF1E0F5BFE5BF99
:10007800F8E1F1BDE1BD8DE0A2E0BB27ED938A95E3
:10008800E9F780E098E0A0E6ED930197E9F7EFE55E
:10009800EDBFE8E0EEBFC0E6D2E00C9453006697EF
:1000A800E7E1EE87EAE3EF87E2E3E88BE1E0E98B5B
:1000B800E4E3F0E0E883F983E5E3F0E0EA83FB8337
:1000C800E3E3F0E0EC83FD83E0E0EE83E4E3F0E0DB
:1000D800EF83F887E5E3F0E0E987FA87E3E3F0E008
:1000E800EB87FC87E1E0ED87DE010E943E04EE85A8
:1000F800FF85688979890E94F805DE0156960E9475
:100108000B05FE01FA93EA93DE015496BA93AA937B
:10011800EA81FB81FA93EA93EA81FB81FA93EA93F5
:10012800E4E0EA93A0E00E94B1042496FFCFFFCF59
:10013800AA93A881AA3030F4E881F0E0EC5AFF4F86
:10014800E49101C0E0E021960895BA93AA93AA81A8
:10015800EFDFA881B981EC930C943C049ED4A1E014
:10016800AA93E881E03079F0A981BA81ED91FD91F7
:10017800BF011080E981FA81E681A1E00E94B405FF
:10018800E095E1210DC0A981BA81ED91FD91BF01F2
:100198001080E981FA81E681A1E00E94B405E12995
:1001A800DB01EC93A981BA811296ED91FD91BF0113
:1001B8001080E981FA81E681A1E00E94B405E0950A
:1001C800E121DB01EC9323966FD4A1E0AA93E881A7
:1001D800E03041F1A981BA81BA93AA93A881B98183
:1001E8001796ED91FD91BF011080E881F981E585B1
:1001F800A1E00E94B405E095E121DB01EC93A88120
:10020800B9811996ED91FD91BF011080E881F981BE
:10021800E585A1E00E94B405E095E121DB01EC93BE
:10022800229601C046D4239685E08A95F1F73CD4FE
:10023800A0E0AA93E881E03041F1A981BA81BA939C
:10024800AA93A881B9811796ED91FD91BF011080FD
:10025800E881F981E585A1E00E94B405E095E121F6
:10026800DB01EC93A881B9811996ED91FD91BF014D
:100278001080E881F981E585A1E00E94B405E09548
:10028800E121DB01EC93229601C013D4239685E08B
:100298008A95F1F760C301D4A0E0AA93E881E03021
:1002A80041F1A981BA81BA93AA93A881B981179615
:1002B800ED91FD91BF011080E881F981E585A1E00C
:1002C8000E94B405E095E121DB01EC93A881B98196
:1002D8001996ED91FD91BF011080E881F981E585BE
:1002E800A1E00E94B405E095E121DB01EC932296A0
:1002F80001C0DFD32396D8D3A1E0AA93E881E030E8
:1003080079F0A981BA81ED91FD91BF011080E98151
:10031800FA81E681A1E00E94B405E095E1210DC0D3
:10032800A981BA81ED91FD91BF011080E981FA811F
:10033800E681A1E00E94B405E129DB01EC93A981E3
:10034800BA811296ED91FD91BF011080E981FA8181
:10035800E681A1E00E94B405E095E121DB01EC9380
:10036800239685E08A95F1F79FD3A1E0AA93E881C7
:10037800E03041F1A981BA81BA93AA93A881B981E1
:100388001796ED91FD91BF011080E881F981E5850F
:10039800A1E00E94B405E095E121DB01EC93A8817E
:1003A800B9811996ED91FD91BF011080E881F9811D
:1003B800E585A1E00E94B405E095E121DB01EC931D
:1003C800229601C076D3239685E08A95F1F7C3C2B9
:1003D800AA931A930A9310E000E010E0183008F08E
:1003E800DEC089D3A0E0AA93E881E03079F0A98142
:1003F800BA81ED91FD91BF011080E981FA81E68112
:10040800A1E00E94B405E095E1210DC0A981BA815F
:10041800ED91FD91BF011080E981FA81E681A1E0AB
:100428000E94B405E129DB01EC93A981BA811296F7
:10043800ED91FD91BF011080E981FA81E681A1E08B
:100448000E94B405E095E121DB01EC93239683E05B
:100458008A95F1F7EA81E17089F14DD3A1E0AA9379
:10046800E881E03041F1A981BA81BA93AA93A881C1
:10047800B9811796ED91FD91BF011080E881F9814E
:10048800E585A1E00E94B405E095E121DB01EC934C
:10049800A881B9811996ED91FD91BF011080E8817D
:1004A800F981E585A1E00E94B405E095E121DB0131
:1004B800EC93229601C0FDD2239630C01CD3A0E055
:1004C800AA93E881E03041F1A981BA81BA93AA934D
:1004D800A881B9811796ED91FD91BF011080E8813F
:1004E800F981E585A1E00E94B405E095E121DB01F1
:1004F800EC93A881B9811996ED91FD91BF01108007
:10050800E881F981E585A1E00E94B405E095E12143
:10051800DB01EC93229601C0CCD2239683E08A9526
:10052800F1F7E9D2A1E0AA93E881E03079F0A98156
:10053800BA81ED91FD91BF011080E981FA81E681D0
:10054800A1E00E94B405E095E1210DC0A981BA811E
:10055800ED91FD91BF011080E981FA81E681A1E06A
:100568000E94B405E129DB01EC93A981BA811296B6
:10057800ED91FD91BF011080E981FA81E681A1E04A
:100588000E94B405E095E121DB01EC93239685E018
:100598008A95F1F7EA81E695EA831F5F1FCFABD210
:1005A800A0E0AA93E881E03079F0A981BA81ED91C1
:1005B800FD91BF011080E981FA81E681A1E00E94E6
:1005C800B405E095E1210DC0A981BA81ED91FD91B5
:1005D800BF011080E981FA81E681A1E00E94B4059B
:1005E800E129DB01EC93A981BA811296ED91FD9185
:1005F800BF011080E981FA81E681A1E00E94B4057B
:10060800E095E121DB01EC932396AB81BC81BA93A1
:10061800AA93A881B9811796ED91FD91BF01108029
:10062800E881F981E585A1E00E94B405E095E12122
:10063800DB01EC93A881B9811996ED91FD91BF0179
:100648001080E881F981E585A1E00E94B405E09574
:10065800E121DB01EC9322968BE08A95F1F74BD2EE
:10066800A1E0AA93E881E03079F0A981BA81ED91FF
:10067800FD91BF011080E981FA81E681A1E00E9425
:10068800B405E095E1210DC0A981BA81ED91FD91F4
:10069800BF011080E981FA81E681A1E00E94B405DA
:1006A800E129DB01EC93A981BA811296ED91FD91C4
:1006B800BF011080E981FA81E681A1E00E94B405BA
:1006C800E095E121DB01EC93239685E08A95F1F72B
:1006D800AB81BC81BA93AA93A881B9811B96ED918D
:1006E800FD91A081E881F981E5850E94BC05E17052
:1006F80022960E2F003081F5FED1A0E0AA93E88162
:10070800E03041F1A981BA81BA93AA93A881B9814D
:100718001796ED91FD91BF011080E881F981E5857B
:10072800A1E00E94B405E095E121DB01EC93A881EA
:10073800B9811996ED91FD91BF011080E881F98189
:10074800E585A1E00E94B405E095E121DB01EC9389
:10075800229601C0AED12396CED1A0E0AA93E8811B
:10076800E03079F0A981BA81ED91FD91BF01108047
:10077800E981FA81E681A1E00E94B405E095E121D2
:100788000DC0A981BA81ED91FD91BF011080E98169
:10079800FA81E681A1E00E94B405E129DB01EC932E
:1007A800A981BA811296ED91FD91BF011080E9816E
:1007B800FA81E681A1E00E94B405E095E121DB0120
:1007C800EC93239685E08A95F1F7E02F198108814B
:1007D80025960895AA931A930A9310E000E8AB812E
:1007E800A23018F0E1E0EB831160AA81A83018F07C
:1007F800E7E0EA831260E02FE77FAE2FEB81E1703C
:10080800EE0FEE0FEE0FEA2B0E2FE87FAE2FEA81E8
:10081800E770EA2B0E2FAC81BD81A0DCEC81FD8155
:10082800FA93EA93A02FD4DDAC81BD8134DDE12FAA
:100838001981088126960895BA93AA931A9310E00D
:100848005FD1A0E4C5DDA981BA8125DD59D1A0EC2D
:10085800BFDD10E0163040F4E981FA81FA93EA939B
:10086800A0E0B6DD1F5FF6CFA981BA8114DD18813B
:100878002396089512D1A1E0AA93E881E03079F097
:10088800A981BA81ED91FD91BF011080E981FA81BA
:10089800E681A1E00E94B405E095E1210DC0A9819F
:1008A800BA81ED91FD91BF011080E981FA81E6815D
:1008B800A1E00E94B405E129DB01EC93A981BA818A
:1008C8001296ED91FD91BF011080E981FA81E681D0
:1008D800A1E00E94B405E095E121DB01EC932396A9
:1008E800E3D0A1E0AA93E881E03041F1A981BA817F
:1008F800BA93AA93A881B9811796ED91FD91BF018A
:100908001080E881F981E585A1E00E94B405E095B1
:10091800E121DB01EC93A881B9811996ED91FD9154
:10092800BF011080E881F981E585A1E00E94B40546
:10093800E095E121DB01EC93229601C0BAD0239621
:1009480085E08A95F1F7A881B98176DFADD0E1E03D
:10095800EA93A7E03FDF22960895AA93F3D010E028
:1009680000E030ECAC81A63018F0E5E0EC831160D3
:10097800EC81F0E0A6E0B0E00E94FD05EA1BFB0B6D
:10098800AD81B0E0EA17FB0734F4AC81E6E0EA1B7E
:10099800ED83126006C0ED81E03019F4E1E0ED83EB
:1009A8001460E32FE87FAE2FEC81E770EA2B3E2F2F
:1009B800AFD0A0E40DDDA885B9856DDCA9D0A32F43
:1009C80007DD00E0ED810E1768F4E885F985FA93F4
:1009D800EA93A885B985EE27A00FBE1FAC91F8DC75
:1009E8000F5FF0CFA885B98556DCE12FB0D02A96E5
:1009F8000895E881E83130F4E981EC3318F4EA81AC
:100A0800EC3310F0E1E001C0E0E024960895BA93D9
:100A1800AA931A930A9310E000E0EC81FD816E819D
:100A28007F810E94F805E5DFE03079F000E00430CE
:100A380050F4E02FF0E0AA81BB81AE0FBF1FE0E4C5
:100A4800EC930F5FF4CFE1E024C01D8169D01396C9
:100A58000E94A900AD816FD012960E94A9001C8146
:100A68005FD011960E94A900AC8165D010960E94B3
:100A7800A900EA81FB81E381EF77AE2FEF81E17076
:100A8800E795E0E0E795EA2BAA81BB811396EC9302
:100A9800E0E01981088128960895BA93AA93E8811D
:100AA800F981FA93EA930895E881F981FA93EA9330
:100AB8000895A981BA811796ED91FD91BF01108023
:100AC800E981FA81E585A1E00E94B405E129DB010D
:100AD800EC93A981BA811996ED91FD91BF0110801F
:100AE800E981FA81E585A1E00E94B405E095E1215C
:100AF800DB01EC930895EB81FC81FA93EA93089566
:100B0800A981BA812BDBE981FA81FA93EA930895E6
:100B1800A885B98523DBE885F985FA93EA930895D2
:100B2800A12FBB27EAE0F0E00E94DC050E2F0A9314
:100B3800AB81BC810895B0E0EAE0F0E00E94D705FF
:100B48001E2FEECF3A932A931A930A9308953B8166
:100B58002A81198108810895F195E195F040089559
:100B6800EE230E2EEA2F19F0EE0F0A94E9F70895F6
:100B7800EE230E2EEA2F19F0E6950A94E9F7089568
:100B88000024112490E1AA0FBB1F001C111C0E1A8F
:100B98001F0A18F40E0E1F1E01C0A1609A9599F73E
:100BA800FD01D001089512D0EBDF0EF4D5DF0895D2
:100BB800E894B7FF04C0B195A195B0406894F7FDDB
:100BC800CBDFDEDFFD010EF4C7DF0895E894F7FF01
:100BD80002C0C2DF6894B7FF06C0B195A195B040C6
:100BE80000F8039400FA08957A936A93FA93EA93C3
:100BF80008951B2EBF2FF12D1A2EAE2FE12D08952B
:00000001FF
