:0C0000000C945F000C9400000C940000B5
:10000C000C9400000C9400000C9400000C94000064
:10001C000C9400000C9400000C9400000C94000054
:10002C000C9400000C9400000C9400000C94000044
:10003C000C9400000C9400000C9400000C94000034
:10004C000C9400000C9400001027E80364000A00D4
:10005C0001000010000110000100370038003600CC
:10006C0004010000000037003800360002000100D7
:10007C0000003700380036000100000000004E750B
:10008C006D6265723D20002020004765742042752A
:10009C0074746F6E000001002D4E414E00494E46A7
:1000AC00000080C001006002A20002006402AE00E9
:1000BC000000F894EE27ECBBF1E0F5BFE5BFF8E1EA
:1000CC00F1BDE1BD8DE0A2E0BB27ED938A95E9F788
:1000DC0080E098E0A0E6ED930197E9F7E0EBF0E023
:1000EC0085919591009761F0A591B591059015902A
:1000FC00BF01F00105900D920197E1F7FB01F0CFE4
:10010C00EFE5EDBFE8E0EEBFC0E6D2E00C948E0068
:10011C00A49784E2A0E0B0E0E6E6F0E00E94990348
:10012C0014E600E0DE0158964DD0DE011C964AD054
:10013C00DE0148D041D0A12F18D0DE0158963FD116
:10014C00E03009F01F5FDE011C96C8D0E03009F0EA
:10015C001150DE0164D1E03009F010E0101719F0F5
:10016C00012FA12F02D0E9CFFFCFAA936097E88986
:10017C00F0E0FA93EA93DE0112960E9452020E947A
:10018C00D002E0E0EA93A0E00E94C002AAE8B0E04E
:10019C000E940C03DE010E94FD02A3E9B0E00E9464
:1001AC000C03E0E0EA93A1E00E94C002A6E9B0E0F3
:1001BC000E940C0361960895A0E10E9430030E94F6
:1001CC00D00208950E9463030E946303ED91FD9198
:1001DC00FA93EA93EA81FB81A681AA93A981BA8159
:1001EC00AC91E881E095EA23A981BA81EC9323963E
:1001FC002296E881F981E085E030D1F4A881B981BB
:10020C00BA93AA93E881F981A281B381BA93AA9394
:10021C00EA81FB81A681AA93A981BA81AC91E8817C
:10022C00E095EA23A981BA81EC932396229650C0DB
:10023C00E130C9F4A881B981BA93AA93E881F98114
:10024C00A281B381BA93AA93EA81FB81A681AA9376
:10025C00A981BA81EC91A881EA2BA981BA81EC938E
:10026C002396229635C0E230D1F4A881B981BA9395
:10027C00AA93E881F981A281B381BA93AA93EA8106
:10028C00FB81A681AA93A981BA81AC91E881E09502
:10029C00EA23A981BA81EC932396229619C0A881EE
:1002AC00B981BA93AA93E881F981A281B381BA93F7
:1002BC00AA93EA81FB81A681AA93A981BA81AC9108
:1002CC00E881E095EA23A981BA81EC9323962296E2
:1002DC000E9468030E946E030C94CE020E9463037A
:1002EC00BA93AA93E881F981A481B581BA93AA93B0
:1002FC00EA81FB81A681AA93A981BA81EC91A8819C
:10030C00EA23F0E0A0E0B0E00E94A003239622963E
:10031C000E94760351F5E881F981E185E03021F501
:10032C008AE08A95F1F7A881B981BA93AA93E881FA
:10033C00F981A481B581BA93AA93EA81FB81A68144
:10034C00AA93A981BA81EC91A881EA23F0E0A0E0FC
:10035C00B0E00E94A003239622960E94760321F41B
:10036C000E947C030C94CE0227C0E881F981A18500
:10037C00A13011F58AE08A95F1F7A881B981BA9379
:10038C00AA93E881F981A481B581BA93AA93EA81F1
:10039C00FB81A681AA93A981BA81EC91A881EA2359
:1003AC00F0E0A0E0B0E00E94A003239622960E9409
:1003BC00760311F00E946803E0E00C94CE020E94D8
:1003CC006303BA93AA93E881F981A481B581BA93A6
:1003DC00AA93EA81FB81A681AA93A981BA81EC91A7
:1003EC00A881EA23F0E0A0E0B0E00E94A0032396ED
:1003FC0022960E94760371F40E9482030E948B0362
:10040C00A43FE1E0BE0728F00E946E03E1E00C94EB
:10041C00CE0202C00E946E03E0E00C94CE020E9459
:10042C006303BA93AA93E881F981A481B581BA9345
:10043C00AA93EA81FB81A681AA93A981BA81EC9146
:10044C00A881EA23F0E0A0E0B0E00E94A00323968C
:10045C0022960E947603C9F40E948B03A031E7E236
:10046C00BE0710F40E9482030E948B03A031E7E2C6
:10047C00BE0728F0E881F981A185A03009F004C0FD
:10048C000E947C030C94CE0204C00E946E030E9456
:10049C006803E0E00C94CE02BA93AA93A991B991A7
:1004AC00E991F99130962AF4E095F09531966DE248
:1004BC006D93E89480E197E20DD088EE93E00AD03A
:1004CC0084E6992707D08AE005D06E2F10D06627D6
:1004DC006C9308956627E817F90720F06395E81BDD
:1004EC00F90BC9F7662311F416F008956894605D52
:1004FC006D930895FFE0FA95F1F70895A1B3AF70ED
:10050C00A1BB919A9098F6DF929AF4DFA0B39298DF
:10051C00F1DF929AEFDF9298A7FDF5CF0895A07FB7
:10052C00AB2BA2BB929A0E94800292980E948002EE
:10053C000895AA939198A1B3A76FA1BBB2B3BF7052
:10054C00A881EDDFA881A295EADF919A0C94610352
:10055C00929A0E948002E0B392980E948002E07FFF
:10056C0008950E948002F4DFAE2FF2DF9198E2959D
:10057C00EA2B0895AA930E948402E881F0E0EC59DA
:10058C00FD4FE081A981AE0F0E949F0259804880E7
:10059C00229608950E948402A2E00E949F020E946B
:1005AC008402ACE00E949F020E948402A1E00E949F
:1005BC009F02E0E04E2E5E2E0895AA93EF93FF93D8
:1005CC00A8816894AA3019F0E894571430F0439439
:1005DC00E0E0EA93A42DCEDF36F053948FDF909AAF
:1005EC00A8810E949F02FF91EF910C946103BA9332
:1005FC00AA931A93A981BA81ED91A983BA831E2F6C
:10060C00E03019F0A12FD9DFF5CF10C0BA93AA931F
:10061C001A93E981FA813196E983FA833197E4914F
:10062C001E2FE03019F0A12FC8DFF3CF18812396CD
:10063C000895AA27BB271197F1F70895AA939198CB
:10064C00A1B3A76FA1BBB2B3BF70A8810E949502E2
:10065C00919A31C0AA93929890987880E881E0584A
:10066C00E0936602E881E054E09367020E949003F5
:10067C000E9490030E949003DCDFA0E2DFDFD9DF51
:10068C00A8E20E949503A4E00E949503A5E80E94AD
:10069C009503A1B3AF70A1BB919A0E94B702E5304C
:1006AC0011F0E0E008C00E948402A6E00E949F02C4
:1006BC000E94D002E1E021960895BA93AA93A881F2
:1006CC00B9810895A881B9811996E0E0EC93089559
:1006DC00A881B9811A96E0E0F0E0ED93FC930895BF
:1006EC00AE2FE881F981E781EA170895A881B981D5
:1006FC001996E1E0EC930895A881B9811A96ED91D1
:10070C00FD913196FE93EE930895E881F981A285CF
:10071C00B38508950E941F03A0E30C9424030E9448
:10072C009F020C941F03AC0FBD1F05900D928A9570
:10073C00E1F70895EA17FB07E1E009F4EE270895C5
:00000001FF
