:0A0000000C945A000C9400000C94BC
:10000A0000000C9400000C9400000C9400000C9466
:10001A0000000C9400000C9400000C9400000C9456
:10002A0000000C9400000C9400000C9400000C9446
:10003A0000000C9400000C9400000C9400000C9436
:10004A0000000C9400000C9400001027E8036400E0
:10005A000A00010000100001100001004348302886
:10006A006D56293A002020200044696666286D569C
:10007A00293A0045787465726E616C2041444300E8
:10008A0057697468204D435033323032000080C0C3
:10009A0001002D4E414E00494E4600000200680202
:1000AA00980001006C029A000000F894EE27ECBB5D
:1000BA00F1E0F5BFE5BF8DE0A2E0BB27ED938A959D
:1000CA00E9F780E098E0A0E6ED930197E9F7E6EA20
:1000DA00F0E085919591009761F0A591B591059011
:1000EA001590BF01F00105900D920197E1F7FB0110
:1000FA00F0CFEFE5EDBFE8E0EEBFC0E6D2E00C944A
:10010A008600259700E010E020E030E0E7E3F0E029
:10011A00E883F983E8E3F0E0EA83FB83E4E0EC8335
:10012A0077D05BD0DE0181D05ED0A4EFB1E00E942F
:10013A00FB060E940703FE01FA93EA93A0E0BED0F1
:10014A008F01FE01FA93EA93A6E0B8D09F01F80165
:10015A000E949A04E0936002F09361026093620243
:10016A0070936302F9010E949A04E0936402F09387
:10017A006502609366027093670206D0A4EFB1E04D
:10018A000E94FB06D8CFFFCF6097E0E0EA93A0E099
:10019A000E94FA02A6E6B0E00E943703E0916002EC
:1001AA00F091610260916202709163020E94A5045B
:1001BA00E0E0EA93A1E00E94FA02A3E7B0E00E941D
:1001CA003703E0916402F0916502609166027091D2
:1001DA0067020E94A50460960895A0E10E944A035E
:1001EA000E94070308950E940703E0E0EA93A0E053
:1001FA000E94FA02ADE7B0E00E943703E0E0EA931A
:10020A00A1E00E94FA02AAE8B0E00E94370308952A
:10021A00BC9AC498BD9AC598BE98C698BF9AC79802
:10022A00E0E5EDB9E0E0EEB90895BA93AA93A881A2
:10023A00B981BA93AA93A881B981ED91FD91BF01C1
:10024A001080E881F981E481A1E00E941005E1298A
:10025A00DB01EC93A881B9811296ED91FD91BF0162
:10026A001080E881F981E481A1E00E941005E1296A
:10027A00DB01EC932296E881F981FA93EA93A1E0F3
:10028A00AA93E981FA8162817381E981FA81A28163
:10029A00B3811C90E481A1E00E941005E0951E2222
:1002AA00E881E170AE2FE981FA81E4810E941005AC
:1002BA00E129DB01EC9323960C940503AA931A9384
:1002CA000A9310E000E0EA81F0E03097C1F40E945E
:1002DA00B404A0E0AA93E981A3E0B0E00E94180563
:1002EA00F0E0E095AA81EA231E2EE881E370AE2FA2
:1002FA00E9810E941005E12923960E2FC7C0E1303B
:10030A00A0E0FA07C1F40E94B404A1E0AA93E9812B
:10031A00A3E0B0E00E941805F0E0E095AA81EA2384
:10032A001E2EE881E370AE2FE9810E941005E129B3
:10033A0023960E2FABC0E230A0E0FA07C1F40E9468
:10034A00B404A2E0AA93E981A3E0B0E00E941805F0
:10035A00F0E0E095AA81EA231E2EE881E370AE2F31
:10036A00E9810E941005E12923960E2F8FC0E33000
:10037A00A0E0FA07C1F40E94B404A3E0AA93E981B9
:10038A00A3E0B0E00E941805F0E0E095AA81EA2314
:10039A001E2EE881E370AE2FE9810E941005E12943
:1003AA0023960E2F73C0E430A0E0FA07C1F40E942E
:1003BA00B904A0E0AA93E981A3E0B0E00E9418057D
:1003CA00F0E0E095AA81EA231E2EE881E370AE2FC1
:1003DA00E9810E941005E12923960E2F57C0E530C6
:1003EA00A0E0FA07C1F40E94B904A1E0AA93E98146
:1003FA00A3E0B0E00E941805F0E0E095AA81EA23A4
:10040A001E2EE881E370AE2FE9810E941005E129D2
:10041A0023960E2F3BC0E630A0E0FA07C1F40E94F3
:10042A00B904A2E0AA93E981A3E0B0E00E9418050A
:10043A00F0E0E095AA81EA231E2EE881E370AE2F50
:10044A00E9810E941005E12923960E2F1FC0E7308B
:10045A00A0E0FA07C1F40E94B904A3E0AA93E981D3
:10046A00A3E0B0E00E941805F0E0E095AA81EA2333
:10047A001E2EE881E370AE2FE9810E941005E12962
:10048A0023960E2F03C0EFEFFFEF8BC0EB81FC81A9
:10049A00FA93EA93A0E0AA93E981FA8162817381CF
:1004AA00E981FA81A281B3811C90E481A1E00E94D2
:1004BA001005E0951E22E881E170AE2FE981FA81EC
:1004CA00E4810E941005E129DB01EC932396A12F18
:1004DA00AA931A930A9308EE13E0EA81EFB977997F
:1004EA0006C00150104011F4EFEF02C0F8CFEFB18F
:1004FA00198108812396A02FAA931A930A9308EECA
:10050A0013E0EA81EFB9779906C00150104011F45F
:10051A00EFEF02C0F8CFEFB11981088123961E2FA1
:10052A00AFEFAA931A930A9308EE13E0EA81EFB9A0
:10053A00779906C00150104011F4EFEF02C0F8CFCE
:10054A00EFB11981088123960E2FEB81FC81FA9372
:10055A00EA93A1E0AA93E981FA8162817381E98130
:10056A00FA81A281B3811C90E481A1E00E94100566
:10057A00E0951E22E881E170AE2FE981FA81E481DB
:10058A000E941005E129DB01EC932396E12FF0E0AC
:10059A00EF70F070FE2FE0E0DF01E02FF0E0EA2BD1
:1005AA00FB2B1981088125960895AA93E2B3EF706F
:1005BA00AE2FE881E07FEA2BE2BB8DE08A95F1F766
:1005CA00929A8DE08A95F1F792988DE08A95F1F7E3
:1005DA0088C0AA93A881E9DFE881E295E883A88127
:1005EA00E4DF85E88A95F1F77CC0AA93E881F0E018
:1005FA00E859FD4FE081A981AE0FEBDF59804880B1
:10060A0022960895A2E00E94BE04ACE0E2DFA1E0D7
:10061A000E94BE04E0E04E2E5E2E0895AA93A881A1
:10062A00AA3011F0571448F0E0E0EA934394A42D5D
:10063A00DCDFA881AA3009F454C05394909AA881A7
:10064A00C8DF90984EC0BA93AA931A93A981BA8127
:10065A00ED91A983BA831E2FE03019F0A12FDEDFB6
:10066A00F5CF10C0BA93AA931A93E981FA81319609
:10067A00E983FA833197E4911E2FE03019F0A12F14
:10068A00CDDFF3CF188123960895AA93E1B3E06FE3
:10069A00E1BB8A9A889A899A9298909891987880D8
:1006AA00E881E058E0936A02E881E054E0936B0243
:1006BA00A4E1B0E00E94FB060E94C4040E94C404A4
:1006CA000E94C404A0E271DF88EC90E00197F1F780
:1006DA00A8E27FDFA4E07DDFA5E87BDFA6E079DF83
:1006EA0091DF21960895BA93AA932497E0E0E883CC
:1006FA00E983EA83EFE3EB831A930A93EB85FC859C
:10070A00EF3FAFEFFA0739F40E94CC04ACE9B0E04E
:10071A000E948D04B1C0EF3FAFE7FA0739F40E9497
:10072A00CC04ADE9B0E00E948D04A6C0AC85AA2332
:10073A0062F4E985FA856B857C850E9454050E94DE
:10074A00D1040E94D604EDE2EC93A885A73010F0FC
:10075A00E6E0E8871885E12F1150E03039F00E9471
:10076A00DD040E94E2040E94E904F5CF0E94EE042F
:10077A000E94FA050E94D10410E0E0E0F0E060E88F
:10078A007FE30E94E9040E94EE040E94DB0688F0DF
:10079A000E94DD040E94F7040E94E9041F5F1732D9
:1007AA0038F00E94CC04A1EAB0E00E948D0464C033
:1007BA00EACF103029F40E94D604E0E3EC932FC06C
:1007CA00E12F1150E03059F10E94DD040E94E20449
:1007DA00A0E0B0E080E09FE30E94FA05DF01CB01D0
:1007EA000E9476040E94E9040E94EE040E94970681
:1007FA000E9487050E2F0E94D604E02FE05DEC933D
:10080A00E02FF0E00E94DD040E9429050E94C00545
:10081A000E9449060E94FE040E940305D1CFE88582
:10082A00E03031F10E94D604EEE2EC93E885E15023
:10083A00E887EF5FE9F00E94FE040E94F7040E9435
:10084A00D104E985FA856B857C850E9487050E2F80
:10085A000E94D604E02FE05DEC93E02FF0E00E94C6
:10086A00FE040E9429050E94C0050E940305DECFEE
:10087A00AE81BF81E0E0EC93198108812D9608953D
:10088A000E9442057B816A81F981E88177FB770FB3
:10089A0067FD7160972F9E5781F078F0983190F438
:1008AA00AA27BB27882708948795B795A7959A956D
:1008BA00D1F7EA23FB23682305C0E8947727EE27BC
:1008CA00FF2766276F77769508F4606877F9A9910C
:1008DA00B99189919991EA17FB076807790797FBFC
:1008EA0008950E9442050E9433050E9445040E9411
:1008FA00380519F40E942E0509C0E6F70E942E0554
:10090A00A0E0B0E080E89FE30E94F30524960895F2
:10091A00BA93AA93E991F991A991B991CD01059058
:10092A000D920020E1F7FC010895662777270E94BF
:10093A00C005A6EFB8E28CE99FE30E944906089534
:10094A000E943D05E1E0EA93DE0115960E947803D4
:10095A00DE010E942803AFE6B0E00C94370316E0EC
:10096A000A93E6E0EA93089514E00A93E6E0EA932C
:10097A0008950E94EE02A3E0B0E00C94FB06A0E307
:10098A000E94DA0288EC90E00197F1F70895EE816F
:10099A00FF81FA93EA930895E987FA876B877C8740
:1009AA000895AE81BF811196AE83BF8311970895D2
:1009BA00AA81BB818C819D810895EDECFCEC6CECE5
:1009CA007DE30E9449060895EA83FB836C837D8355
:1009DA000895EA81FB816C817D81A985BA858B8521
:1009EA009C850895E0E0F0E060E271E40E94490627
:1009FA000895A985BA858B859C8508950E94470527
:100A0A000E94F305C9CFF09560957095E195FF4F67
:100A1A006F4F7F4F0895EE230E2EEA2F19F0EE0F37
:100A2A000A94E9F70895EE230E2EE8E01E2EFD0142
:100A3A0051F0011420F0FE2FE0E0011821F0EE0F32
:100A4A00FF1F0A94E1F708956F2F660F660B762F42
:100A5A000895E881F9816A817B810895A881B98125
:100A6A008A819B810895E883F9836A837B83089549
:100A7A007A936A93FA93EA9308959A938A93BA9324
:100A8A00AA930895182E862F612D192E972F712D4E
:100A9A001B2EBF2FF12D1A2EAE2FE12D0895309760
:100AAA006040704009F070580895552342F4503858
:100ABA0011F4E0FF04C03196691F791F6BF050E80A
:100ACA00572711F45F93CFC05F3F31F0660F000CD8
:100ADA0057956795752F08955F9300200AF0CEC049
:100AEA00C7C050E8192E1522880F991F9527550F50
:100AFA00879550E8072E0522660F771F7527550F31
:100B0A0067950895689401C0E8945F93F2DF70389E
:100B1A0018F07F3F08F4A7C056E1571BAAF4519575
:100B2A0058300EF4593030F0EFEFFFEF6FEF7FE7F8
:100B3A0077F91AC077275523B9F0EE0FFF1F661F02
:100B4A00771F5A95D1F710C07727583028F0EF2F22
:100B5A00F62F672F5850F9CF552331F076956795C0
:100B6A00F795E7955A95D1F700200AF44CDF5F9183
:100B7A000895689401C0E894309760407040B1F0DD
:100B8A00002426F0772312F400943DDF172E7EE12D
:100B9A00112032F07A95EE0FFF1F661F111CF9CF54
:100BAA00EF2FF62F612D5F938ADF5F9108954F93A0
:100BBA00AF01FD01DA01AB01BC01CA01402D012CD4
:100BCA00142E4F910895EA0FFB1F681F0895E095B0
:100BDA00F0956095EF5FFF4F6F4F08955F9381DF48
:100BEA00903871F150E8152604C05F937ADF903887
:100BFA0039F1703821F1572F591B2BF112F4D7DF35
:100C0A00FACF583118F0AA27BB278827583028F07E
:100C1A00AB2FB82F88275850F9CF552329F086953E
:100C2A00B795A7955A95D9F7502D512572F0CBDF74
:100C3A0038F46795F795E795739513F41FC0B7DFF6
:100C4A003EDF5F910895D8F7FBCFEA1BFB0B680BD9
:100C5A0051F010F40094BBDF662392F3EE0FFF1FEE
:100C6A00661F7A95CBF7EE27FF27BF015F9108959C
:100C7A00EFEFFFEF6FE77FEF5F910895EFEFFFEF81
:100C8A006FE77FE75F9108955F932BDF703859F321
:100C9A00903849F301240894791F23F424F300209F
:100CAA003AF3ECCF0F921F932F933F934F93112751
:100CBA0022279927689FA0018F9F302D410D591F28
:100CCA006B9F300D411D591F8E9F27D0BF9F25D086
:100CDA006A9F23D0BE9F1DD0AF9F1BD0AE9F110D20
:100CEA00291F391F491F591FE32FF42F652F522F30
:100CFA004F913F912F911F910F9066232AF0550F24
:100D0A00EE1FFF1F661F02C073954BF2CEDE5F9186
:100D1A000895100D211D391F02C0200D311D491FD4
:100D2A00591F08955F93DDDE703821F411200AF40B
:100D3A009FCFA4CF903809F496CF01240894970B3B
:100D4A001BF4D4F30020F3CF792F1F932F933F93F3
:100D5A004F931124112722273327A90190E2AE17B6
:100D6A00BF078607410730F0AE1BBF0B860B410B4E
:100D7A00089401C08894551F221F331F111CAA1FF3
:100D8A00BB1F881F441F9A9551F7F901612D4F9196
:100D9A003F912F911F91662332F0550FEE1FFF1FCF
:100DAA00661F7A954BF281DE5F91089599239AF036
:100DBA00772342F0971748F029F4AE17BF07860742
:100DCA0020F031F09894889408959894089408959E
:100DDA001894889408957723C2F7971798F3A9F778
:100DEA00EA17FB07680788F399F3ECCF109639F0F6
:100DFA00A89580ED97E00197F1F71197C9F7089543
:00000001FF
