:0A0000000C9460000C9400000C94B6
:10000A0000000C9400000C9400000C9400000C9466
:10001A0000000C9400000C9400000C9400000C9456
:10002A0000000C9400000C9400000C9400000C9446
:10003A0000000C9400000C9400000C9400000C9436
:10004A0000000C9400000C9400001027E8036400E0
:10005A000A00010000100001100001002C0100003C
:10006A0000004E756D6265723A002020004D5342C1
:10007A003A004C53423A0054657374696E672074AF
:10008A006865204C4344004C6F6164696E67202E9A
:10009A002E2E000080C001002D4E414E00494E46D2
:1000AA000000060004006600020060029E000100D3
:1000BA006402A0000000F894EE27ECBBF1E0F5BF63
:1000CA00E5BF8DE0A2E0BB27ED938A95E9F780E0D2
:1000DA0098E0A0E6ED930197E9F7ECEAF0E0859164
:1000EA009591009761F0A591B59105901590BF0182
:1000FA00F00105900D920197E1F7FB01F0CFEFE5D2
:10010A00EDBFE8E0EEBFC0E6D2E00C949A00BA93E5
:10011A00AA931A9310E01A81E12FF7C0BA93AA930F
:10012A001A9310E0E9811E2FF0C05CD05ED072D025
:10013A007CD02FD0F20131962F01D201E8DF7E2E3A
:10014A00D201ECDF6E2E992019F09924C09803C0D1
:10015A00E1E09E2EC09A1DD006D0A8EEB3E00E9420
:10016A000B02E8CFFFCFEBEEECB90E94E9017CB8B5
:10017A000E94E9016CB80E94E9019CB80E94E90159
:10018A00E72DE551E60DE90D8E2E8CB80E94E901A6
:10019A00089560975A924A920E94ED01A0E068D0B1
:1001AA00ACE6B0E00E94F401E72DF0E0FA93EA939E
:1001BA000E94ED01A1E05CD0A7E7B0E00E94F40143
:1001CA00E62DF0E0FA93EA93DE0112960E94BB0153
:1001DA00E7E0EA93A1E04CD0ACE7B0E00E94F4017A
:1001EA0060960895A0E194D013C04FD0E0E0EA935E
:1001FA00A0E03ED0A1E8B0E078D0E0E0EA93A1E048
:10020A0037D0A1E9B0E071D0A4EFB1E00E940B02AF
:10021A003CD00895E0E0EBB9E8E1EAB9E6E8E0BDF0
:10022A00E0E0E0BDE7E4E9B90895B89AC098089516
:10023A00AA93E5B3EF70AE2FE881E07FEA2BE5BB26
:10024A0082E18A95F1F7AA9A82E18A95F1F7AA984A
:10025A0082E18A95F1F788C0AA93A881E9DFE8814B
:10026A00E295E883A881E4DF88EB8A95F1F77CC000
:10027A00AA93E881F0E0E05AFD4FE081A981AE0F30
:10028A00EBDFB980A88022960895A2E00E94FD01C2
:10029A00ACE0E2DFA1E00E94FD01E0E0AE2EBE2E5E
:1002AA000895AA93A881AA3011F0BD1448F0E0E09D
:1002BA00EA93A394AA2DDCDFA881AA3009F454C0DA
:1002CA00B394A89AA881C8DFA8984EC0BA93AA93F3
:1002DA001A93A981BA81ED91A983BA831E2FE030BE
:1002EA0019F0A12FDEDFF5CF10C0BA93AA931A93A3
:1002FA00E981FA813196E983FA833197E4911E2FD5
:10030A00E03019F0A12FCDDFF3CF1881239608959D
:10031A00AA93E4B3E06FE4BBA29AA09AA19AAA981E
:10032A00A898A998D880E881E058E0936202E88109
:10033A00E054E0936302A4E1B0E00E940B020E9441
:10034A0003020E9403020E940302A0E271DF84E119
:10035A0091E00197F1F7A8E27FDFA4E07DDFA5E84D
:10036A007BDFA6E079DF91DF21960895BA93AA93FD
:10037A00A991B991E991F99130962AF4E095F0950D
:10038A0031966DE26D93E89480E197E20DD088EEA4
:10039A0093E00AD084E6992707D08AE005D06E2F29
:1003AA0010D066276C9308956627E817F90720F09E
:1003BA006395E81BF90BC9F7662311F416F0089543
:1003CA006894605D6D930895A5E0B0E00C940B020B
:1003DA00DE0112960E94BB01E0E0EA9308950E94B2
:1003EA007A01DE010E946B01A4E7B0E00C947A0165
:1003FA000E943101A3E0B0E00C940B02A0E30E943A
:10040A001D0184E191E00197F1F70895109639F002
:10041A008DEC9AE00197F1F7A8951197C9F708951D
:00000001FF
