:060000000C9451000C9469
:1000060000000C9400000C9400000C9400000C946A
:1000160000000C9400000C9400000C9400000C945A
:1000260000000C9400000C9400000C9400000C944A
:1000360000000C9400000C9400000C9400000C943A
:1000460000000C9400000C9400000C940000102793
:10005600E80364000A00010000100001100001001E
:1000660007004E756D6265723D20002020004765D1
:100076007420427574746F6E000001002D4E414E5F
:1000860000494E46000080C00100020066000100E3
:1000960060028000020064028C000000F894EE27E3
:1000A600ECBBF1E0F5BFE5BFF8E1F1BDE1BD8DE0E8
:1000B600A2E0BB27ED938A95E9F780E098E0A0E6F9
:1000C600ED930197E9F7EEE8F0E0859195910097B9
:1000D60061F0A591B59105901590BF01F0010590CD
:1000E6000D920197E1F7FB01F0CFEFE5EDBFE8E0F8
:1000F600EEBFC0E6D2E00C94800014E600E00E9459
:10010600DB013FD0A12F16D00E94E201E03009F0BA
:100116001F5F0E94FA01E03009F01F5F0E94120281
:10012600E03009F010E0101719F0A12F03D0012FCD
:10013600EBCFFFCFAA936097E889F0E0FA93EA93B2
:10014600DE0112960E94CA000E944801E0E0EA938E
:10015600A0E00E943801A8E6B0E00E948401DE011A
:100166000E947501A1E7B0E00E948401E0E0EA93F5
:10017600A1E00E943801A4E7B0E00E9484016196E4
:100186000895A0E10E94A8010E9448010895BA932B
:10019600AA93A991B991E991F99130962AF4E0953B
:1001A600F09531966DE26D93E89480E197E20DD07B
:1001B60088EE93E00AD084E6992707D08AE005D036
:1001C6006E2F10D066276C9308956627E817F907F7
:1001D60020F06395E81BF90BC9F7662311F416F0B6
:1001E60008956894605D6D930895FFE0FA95F1F7C0
:1001F6000895A1B3AF70A1BB919A9098F6DF929A39
:10020600F4DFA0B39298F1DF929AEFDF9298A7FD00
:10021600F5CF0895A07FAB2BA2BB929A0E94F8005F
:1002260092980E94F8000895AA939198A1B3A76F97
:10023600A1BBB2B3BF70A881EDDFA881A295EADFAA
:10024600919A0C94D901929A0E94F800E0B3929880
:100256000E94F800E07F08950E94F800F4DFAE2FB8
:10026600F2DF9198E295EA2B0895AA930E94FC008A
:10027600E881F0E0EC59FD4FE081A981AE0F0E94C4
:10028600170159804880229608950E94FC00A2E03A
:100296000E9417010E94FC00ACE00E9417010E9418
:1002A600FC00A1E00E941701E0E04E2E5E2E0895AC
:1002B600AA93EF93FF93A8816894AA3019F0E89463
:1002C600571430F04394E0E0EA93A42DCEDF36F0E5
:1002D60053948FDF909AA8810E941701FF91EF91A6
:1002E6000C94D901BA93AA931A93A981BA81ED9174
:1002F600A983BA831E2FE03019F0A12FD9DFF5CFDD
:1003060010C0BA93AA931A93E981FA813196E983C8
:10031600FA833197E4911E2FE03019F0A12FC8DF40
:10032600F3CF188123960895AA27BB271197F1F7D3
:100336000895AA939198A1B3A76FA1BBB2B3BF705A
:10034600A8810E940D01919A31C0AA939298909823
:100356007880E881E058E0936602E881E054E09313
:1003660067020E942C020E942C020E942C02DCDFF3
:10037600A0E2DFDFD9DFA8E20E943102A4E00E94FA
:100386003102A5E80E943102A1B3AF70A1BB919AD8
:100396000E942F01E53011F0E0E008C00E94FC0049
:1003A600A6E00E9417010E944801E1E02196089507
:1003B600B898C09AB998C19ABA98C29A0895B0994D
:1003C60002C020FC01C007C00E943502B09903C0DC
:1003D600E89420F82FC0B09B02C020FE01C006C0E2
:1003E6000E943502B09B02C0689420F830C0B199D3
:1003F60015C0A8E6B2E0ED91FD913196FE93EE931D
:10040600A0916802B0916902A83EE3E0BE0730F011
:10041600E0E0E0936802E09369020CC018C0B2996C
:1004260002C022FC01C008C00E943502B29904C075
:10043600E89422F8E1E00895B29B02C022FE01C0D2
:1004460006C00E943502B29B02C0689422F8E0E022
:1004560008950E949701A0E30C949C010E94170145
:100466000C949701AEE1B0E00C943902109639F085
:10047600A8958AEF90E00197F1F71197C9F70895CB
:00000001FF
