:020000000C945E
:100002005C000C9400000C9400000C9400000C9412
:1000120000000C9400000C9400000C9400000C945E
:1000220000000C9400000C9400000C9400000C944E
:1000320000000C9400000C9400000C9400000C943E
:100042008B000C9400000C9400000C9400000C94A3
:10005200000088948883848483801027E8036400E6
:100062000A00010000100001100001000000000061
:10007200000000000000000000000000000000007E
:10008200000054656D70313A002020200054656DE7
:1000920070323A0001002D4E414E00494E4600009A
:1000A20080C0010007006E0001006002960002009D
:1000B2006402A2000000F894EE27ECBBF1E0F5BF69
:1000C200E5BFF8E1F1BDE1BD8DE0A2E0BB27ED9314
:1000D2008A95E9F780E098E0A0E6ED930197E9F7C9
:1000E200E4EAF0E085919591009761F0A591B591D0
:1000F20005901590BF01F00105900D920197E1F76F
:10010200FB01F0CFEFE5EDBFE8E0EEBFC0E6D2E0E5
:100112000C940701AA93BA93EA93FA93EFB7EA937E
:100122000E94DC0319F044B055B002C045B055241A
:10013200E1E07E2EE991EFBFF991E991B991A991A0
:100142001895E6B1E87FE460E6B9E7B1EF73E064E1
:10015200E7B9E7B1EF7DE7B93398E0B7EF71E0BFF8
:100162003598E7B1E07EE7B9379A83E08A95F1F7EF
:100172003698F8940895AA93E6B1F0E00E947A04C2
:100182000E947804E17009F1E7B1E07EA881EA2BD0
:10019200E7B983E08A95F1F7369AE6B1F0E00E947A
:1001A2007804E170F070A1E0B0E0EA27FB27309715
:1001B200A1F7349A0E94DC0321F0E4B1F5B10C946A
:1001C2002D03E5B1F0E00C942D03E0E0F0E00C9497
:1001D2002D03AA931A930A93EA81EE0FEE0FEE0F04
:1001E200E0640E2F10E0183068F40A930395EC8156
:1001F200FD813196EC83FD833197A4910E947402B4
:100202001F5FF1CF1981088125960895649784E1D3
:10021200A0E0B0E0E0E7F0E00E94640400E010E05B
:1002220020E030E040E050E03CD08BDFE4E5F0E05D
:10023200FA93EA93A0E0CDDFA7E09DDF8F011A9346
:100242000A93DE011F960E942F038F011A930A93CD
:10025200ADB7BEB711973F932F930E9470032F91B2
:100262003F91E03029F0F8010E94EA03A1E01FD09B
:10027200A6E081DFAF015A934A93DE0116960E94EF
:100282002F03AF015A934A93DE011D960E94700319
:10029200E03029F0FA010E94EA03A2E008D0CCCFB4
:1002A200FFCFA0E10E94FC020E94A0020895AA933F
:1002B2006097E889F0E0E130A0E0FA0751F4E0E06D
:1002C200EA93A0E00E949002A4E8B0E00E94030436
:1002D2000DC0E230A0E0FA0749F4E0E0EA93A1E0C1
:1002E2000E949002AFE8B0E00E9403046596089570
:1002F200BA93AA932497E0E0E883E983EA83EFE3E1
:10030200EB831A930A93EB85FC85EF3FAFEFFA0775
:1003120039F40E941B04A8E9B0E00E94CF03B1C0E7
:10032200EF3FAFE7FA0739F40E941B04A9E9B0E0F6
:100332000E94CF03A6C0AC85AA2362F4E985FA85A0
:100342006B857C850E94DA040E9420040E942504A9
:10035200EDE2EC93A885A73010F0E6E0E887188577
:10036200E12F1150E03039F00E942C040E94310438
:100372000E943804F5CF0E943D040E9480050E942D
:10038200200410E0E0E0F0E060E87FE30E9438043F
:100392000E943D040E94610688F00E942C040E9483
:1003A20046040E9438041F5F173238F00E941B0473
:1003B200ADE9B0E00E94CF0364C0EACF103029F467
:1003C2000E942504E0E3EC932FC0E12F1150E030AE
:1003D20059F10E942C040E943104A0E0B0E080E0B8
:1003E2009FE30E948005DF01CB010E94B8030E94B7
:1003F20038040E943D040E941D060E940D050E2F26
:100402000E942504E02FE05DEC93E02FF0E00E94D3
:100412002C040E9481040E9446050E94CF050E947E
:100422004D040E945204D1CFE885E03031F10E94A0
:100432002504EEE2EC93E885E150E887EF5FE9F00E
:100442000E944D040E9446040E942004E985FA8518
:100452006B857C850E940D050E2F0E942504E02FDE
:10046200E05DEC93E02FF0E00E944D040E948104D5
:100472000E9446050E945204DECFAE81BF81E0E0B9
:10048200EC93198108812D960895FFE0FA95F1F712
:100492000895A1B3AF70A1BB919A9098F6DF929A9A
:1004A200F4DFA0B39298F1DF929AEFDF9298A7FD62
:1004B200F5CF0895A07FAB2BA2BB929A0E94460271
:1004C20092980E9446020895AA939198A1B3A76FA9
:1004D200A1BBB2B3BF70A881EDDFA881A295EADF0C
:1004E200919A0C942D03AA930E944A02A9810E9418
:1004F2005704909AA881E8DF20C0929A0E9446028F
:10050200E0B392980E944602E07F08950E9446025C
:10051200F4DFAE2FF2DF9198E295EA2B0895AA93C9
:100522000E944A02E881F0E0EC59FD4FE081A98186
:10053200AE0F0E94650269809880229608950E94FB
:100542004A02A2E00E945704ACE00E945704A1E0D4
:100552000E946502E0E09E2E6E2E0895AA93EF930C
:10056200FF93A8816894AA3019F0E894681430F0D7
:100572009394E0E0EA93A92DD2DF36F0639489DF09
:10058200909AA8810E946502FF91EF910C942D032D
:10059200BA93AA931A93A981BA81ED91A983BA83D6
:1005A2001E2FE03019F0A12FD9DFF5CF10C0BA937A
:1005B200AA931A93E981FA813196E983FA833197F2
:1005C200E4911E2FE03019F0A12FC8DFF3CF18817C
:1005D20023960895AA27BB271197F1F70895AA93A6
:1005E2009198A1B3A76FA1BBB2B3BF70A8810E94BB
:1005F2005B02919A31C0AA93929890988880E88180
:10060200E058E0936602E881E054E09367020E94BA
:100612005B040E945B040E945B04DCDFA0E2DFDF7C
:10062200D9DFA8E20E946004A4E00E946004A5E869
:100632000E946004A1B3AF70A1BB919A0E9487028D
:10064200E53011F0E0E008C00E944A02A6E00E94F4
:1006520065020E94A002E1E021960895BA93AA934E
:10066200A881B9810D010E94AA04DF01CB01EA81B0
:10067200FB81662777270E946B04D0010E94AF049A
:10068200A881B9811496EC91EF5FEC93E881F9812E
:10069200A481AA30E8F0A881B9810E94AA04DF01EE
:1006A200CB01EAE0F0E060E070E00E948604A881FD
:1006B200B9811596ED93FC93A881B981E0E0F0E051
:1006C20060E070E00E94AF04A881B9811496EC93B7
:1006D200A881B9811596ED91FD910C94CD03BA9341
:1006E200AA93A881B981ED91FD91AA81BB81EA17F4
:1006F200FB0749F0EA81FB81A881B981ED93FC9364
:10070200E1E00C94CD03E0E00C94CD030E94C80418
:100712007B816A81F981E88177FB770F67FD7160E0
:10072200972F9E5781F078F0983190F4AA27BB2733
:10073200882708948795B795A7959A95D1F7EA23C4
:10074200FB23682305C0E8947727EE27FF27662757
:100752006F77769508F4606877F9A991B9918991D4
:100762009991EA17FB076807790797FB08950E949A
:10077200C8040E94B9040E9487030E94BE0419F4AF
:100782000E94B40409C0E6F70E94B404A0E0B0E0FD
:1007920080E89FE30E94790524960895BA93AA936C
:1007A200E991F991A991B991CD0105900D9200209D
:1007B200E1F7FC010895E7B1F0E0F595E7950E94B5
:1007C2007804E170F070A1E0B0E0EA27FB273097EF
:1007D2000895662777270E944605AAE1B7E68CE9C5
:1007E20090E40E94CF050E94BE040E94B904EDEC81
:1007F200FCEC6CEC7DE30E94CF050E94BE040E94DB
:10080200C30408950E94D802E989FA896B897C8918
:100812000E94C304E1E0EA93DE0115960E94790189
:10082200DE010E94C902A0E00E94AF02ABE8B0E084
:100832000C94D802EE81FF81FA93EA930895E98736
:10084200FA876B877C870895AE81BF811196AE834C
:10085200BF8311970895AA81BB818C819D810895E0
:10086200EDECFCEC6CEC7DE30E94CF050895EA838D
:10087200FB836C837D830895EA81FB816C817D819A
:10088200A985BA858B859C850895E0E0F0E060E259
:1008920071E40E94CF050895A985BA858B859C8550
:1008A20008950E94CD040E947905C9CF0E94650275
:1008B2000C944A020E94EB02A0E30C94F0020E9404
:1008C20065020C94EB02AC0FBD1F05900D928A9548
:1008D200E1F70895EA0FFB1F681F791F0895F0954D
:1008E20060957095E195FF4F6F4F7F4F0895F59595
:1008F200E795F595E795F595E795F595E7950895CB
:100902006F2F660F660B762F08953F934F935F9379
:1009120000241124A00130E2AA0FBB1F881F991FD7
:10092200001C111C441F551F0E1A1F0A460B570BA1
:1009320028F40E0E1F1E461F571F01C0A1603A95D4
:1009420059F7FD01BC01D001CA015F914F913F915E
:100952000895ED91FD916D917D910895ED93FD9333
:100962006D937C930895E881F9816A817B81089572
:10097200A881B9818A819B810895E883F9836A837A
:100982007B8308957A936A93FA93EA9308959A93EC
:100992008A93BA93AA930895182E862F612D192E41
:1009A200972F712D1B2EBF2FF12D1A2EAE2FE12D59
:1009B200089530976040704009F0705808955523AB
:1009C20042F4503811F4E0FF04C03196691F791FD8
:1009D2006BF050E8572711F45F93CFC05F3F31F0BF
:1009E200660F000C57956795752F08955F93002049
:1009F2000AF0CEC0C7C050E8192E1522880F991FE1
:100A02009527550F879550E8072E0522660F771F09
:100A12007527550F67950895689401C0E8945F9310
:100A2200F2DF703818F07F3F08F4A7C056E1571B79
:100A3200AAF4519558300EF4593030F0EFEFFFEF31
:100A42006FEF7FE777F91AC077275523B9F0EE0FDA
:100A5200FF1F661F771F5A95D1F710C077275830AE
:100A620028F0EF2FF62F672F5850F9CF552331F08A
:100A720076956795F795E7955A95D1F700200AF490
:100A82002EDF5F910895689401C0E894309760402A
:100A92007040B1F0002426F0772312F400941FDF97
:100AA200172E7EE1112032F07A95EE0FFF1F661F9E
:100AB200111CF9CFEF2FF62F612D5F938ADF5F9123
:100AC20008954F93AF01FD01DA01AB01BC01CA01E8
:100AD200402D012C142E4F910895EA0FFB1F681F21
:100AE2000895E095F0956095EF5FFF4F6F4F089581
:100AF2005F9381DF903871F150E8152604C05F934F
:100B02007ADF903839F1703821F1572F591B2BF1C8
:100B120012F4D7DFFACF583118F0AA27BB2788275B
:100B2200583028F0AB2FB82F88275850F9CF5523CB
:100B320029F08695B795A7955A95D9F7502D512545
:100B420072F0CBDF38F46795F795E795739513F458
:100B52001FC0B7DF3EDF5F910895D8F7FBCFEA1BD6
:100B6200FB0B680B51F010F40094BBDF662392F389
:100B7200EE0FFF1F661F7A95CBF7EE27FF27BF0107
:100B82005F910895EFEFFFEF6FE77FEF5F910895B9
:100B9200EFEFFFEF6FE77FE75F9108955F932BDF42
:100BA200703859F3903849F301240894791F23F4DB
:100BB20024F300203AF3ECCF0F921F932F933F932D
:100BC2004F93112722279927689FA0018F9F302DCD
:100BD200410D591F6B9F300D411D591F8E9F27D00C
:100BE200BF9F25D06A9F23D0BE9F1DD0AF9F1BD031
:100BF200AE9F110D291F391F491F591FE32FF42FD3
:100C0200652F522F4F913F912F911F910F90662385
:100C12002AF0550FEE1FFF1F661F02C073954BF29D
:100C2200CEDE5F910895100D211D391F02C0200DE7
:100C3200311D491F591F08955F93DDDE703821F47D
:100C420011200AF49FCFA4CF903809F496CF012443
:100C52000894970B1BF4D4F30020F3CF792F1F9342
:100C62002F933F934F931124112722273327A90152
:100C720090E2AE17BF078607410730F0AE1BBF0BED
:100C8200860B410B089401C08894551F221F331F05
:100C9200111CAA1FBB1F881F441F9A9551F7F90107
:100CA200612D4F913F912F911F91662332F0550F85
:100CB200EE1FFF1F661F7A954BF281DE5F9108954A
:100CC20099239AF0772342F0971748F029F4AE1748
:100CD200BF07860720F031F098948894089598947D
:100CE200089408951894889408957723C2F7971763
:100CF20098F3A9F7EA17FB07680788F399F3ECCF93
:00000001FF
