:100000000C9488000C9400000C9400000C940000E8
:100010000C9400000C9400000C9400000C94000060
:100020000C9400000C9400000C9400000C94000050
:100030000C9400000C9400000C9400000C94000040
:100040000C9400000C9400000C9400000C94000030
:100050000C940000000007040103080502000906D3
:10006000030B0C0D0E0FEE00ED01EB02E703DE04B7
:10007000DD05DB06D707BE08BD09BB0AB70B7E0C42
:100080007D0D7B0E770F2020003D3E003478344BF1
:10009000657970616420447269766572004E756D91
:1000A00028496E697469616C293A004E756D284360
:1000B0006F7272656374293A0054657374696E6770
:1000C00020746865204C4344004C6F6164696E671E
:1000D000202E2E2E004769744875622E636F6D00C6
:1000E000416C6952657A614A6F6F64690000010072
:1000F0002D4E414E00494E46000080C001000700D1
:10010000540001006002EE0002006402FA000000E8
:10011000F894EE27ECBBF1E0F5BFE5BFF8E1F1BDE7
:10012000E1BD8DE0A2E0BB27ED938A95E9F780E081
:1001300098E0A0E6ED930197E9F7ECEFF0E0859108
:100140009591009761F0A591B59105901590BF012B
:10015000F00105900D920197E1F7FB01F0CFEFE57B
:10016000EDBFE8E0EEBFC0E6D2E00C94B7007AD075
:100170007DD087D05A92A42D11D030D05E2EA52DDF
:1001800041D04E2EE0E14E1610F4471409F404C09D
:100190005A92A42D03D0742CF0CFFFCFAA9360976E
:1001A0000E946502E9890E946C02E4E0EA93A0E003
:1001B0000E94C201A9E8B0E00E940E02E7E0EA93C3
:1001C000A0E00E94C201E8890E946C020E947A02AB
:1001D000ACE8B0E00E940E02629608951A93EFE038
:1001E000E4BBE0EFE5BB82E08A95F1F713B3E4BB33
:1001F000EFE0E5BB82E08A95F1F7E3B31E2BE12F38
:1002000019910895AA93E09780E3A0E0B0E0E6E5B5
:10021000F0E00E9499021A930A9310E000E0AAA964
:10022000AF3FD1F010E0103150F40E947F02AE0FCA
:10023000BF1FEC91AAA9EA1711F01F5FF4CF0E942B
:100240007F02EA0FFB1F0181E02FF0E0DE01129632
:10025000AE0FBF1F0C9101C000E1E02F1981088192
:10026000E3960895A0E10E9432021BC00E9465023D
:10027000A9EBB0E00E940E020E947A02A9ECB0E065
:100280000AC00E946502A5EDB0E00E940E020E9425
:100290007A02A0EEB0E00E940E02A4EFB1E00E944C
:1002A0008F020E94D2010895BA93AA93A991B9919D
:1002B000E991F99130962AF4E095F09531966DE246
:1002C0006D93E89480E197E20DD088EE93E00AD038
:1002D00084E6992707D08AE005D06E2F10D06627D4
:1002E0006C9308956627E817F90720F06395E81BDB
:1002F000F90BC9F7662311F416F008956894605D50
:100300006D930895FFE0FA95F1F70895A1B3AF70EA
:10031000A1BB919A9098F6DF929AF4DFA0B39298DD
:10032000F1DF929AEFDF9298A7FDF5CF0895A07FB5
:10033000AB2BA2BB929A0E94820192980E948201EA
:100340000895AA939198A1B3A76FA1BBB2B3BF7050
:10035000A881EDDFA881A295EADF919A0C9463024F
:10036000929A0E948201E0B392980E948201E07FFB
:1003700008950E948201F4DFAE2FF2DF9198E2959A
:10038000EA2B0895AA930E948601E881F0E0EC59D7
:10039000FD4FE081A981AE0F0E94A1016980988084
:1003A000229608950E948601A2E00E94A1010E9467
:1003B0008601ACE00E94A1010E948601A1E00E949A
:1003C000A101E0E09E2E6E2E0895AA93EF93FF9375
:1003D000A8816894AA3019F0E894681430F09394D6
:1003E000E0E0EA93A92DCEDF36F063948FDF909A98
:1003F000A8810E94A101FF91EF910C946302BA932E
:10040000AA931A93A981BA81ED91A983BA831E2F69
:10041000E03019F0A12FD9DFF5CF10C0BA93AA931D
:100420001A93E981FA813196E983FA833197E4914D
:100430001E2FE03019F0A12FC8DFF3CF18812396CB
:100440000895AA27BB271197F1F70895AA939198C9
:10045000A1B3A76FA1BBB2B3BF70A8810E949701DF
:10046000919A31C0AA93929890988880E881E05838
:10047000E0936602E881E054E09367020E948602FE
:100480000E9486020E948602DCDFA0E2DFDFD9DF65
:10049000A8E20E948B02A4E00E948B02A5E80E94C1
:1004A0008B02A1B3AF70A1BB919A0E94B901E53054
:1004B00011F0E0E008C00E948601A6E00E94A101C0
:1004C0000E94D201E1E0219608950E94D201E0E06D
:1004D000EA93A0E00C94C201F0E0FA93EA93DE0103
:1004E00012960E945401DE010E94FF01A6E8B0E0CE
:1004F0000C940E02E0E0EA93A1E00C94C201E12F1B
:10050000F0E0DE015296EE0FFF1F08950E942102D7
:10051000A0E30C9426020E94A1010C9421021096E3
:1005200039F08AEF90E00197F1F7A8951197C9F794
:100530000895AC0FBD1F05900D928A95E1F70895BF
:00000001FF
