:0A0000000C9470000C9400000C94A6
:10000A0000000C9400000C9400000C9400000C9466
:10001A0000000C9400000C9400000C9400000C9456
:10002A0000000C9400000C9400000C9400000C9446
:10003A0000000C9400000C9400000C9400000C9436
:10004A0000000C9400000C9400001027E8036400E0
:10005A000A000100001000011000010076616C75B1
:10006A00653D202564000D2A2A2A2046756E637490
:10007A00696F6E202A2A2A000D456E746572203235
:10008A00206368617220737472696E673A000D505A
:10009A007265737320616E79206B65793A000D4140
:1000AA005343494920446563696D616C3A20000DE8
:1000BA00415343494920436861723A202020200075
:1000CA000D0001002D4E414E00494E460000010030
:1000DA006002CC000000F894EE27ECBBF1E0F5BF1B
:1000EA00E5BFF8E1F1BDE1BD8DE0A2E0BB27ED93EC
:1000FA008A95E9F780E098E0A0E6ED930197E9F7A1
:10010A00E8EDF0E085919591009761F0A591B591A0
:10011A0005901590BF01F00105900D920197E1F746
:10012A00FB01F0CFEFE5EDBFE8E0EEBFC0E6D2E0BD
:10013A000C949F0019E116D0FE01FA93EA93E6E6C1
:10014A00F0E0FA93EA93E12FFF27662777270E94C8
:10015A00E80284E00E9458022896DE010E94C90043
:10016A00FFCFFFCFE0E0EBB9E8E1EAB9E6E8E0BDAE
:10017A00E0E0E0BDE7E4E9B90895AA935D9BFECF0C
:10018A00E881ECB921960895BA93AA931A93A981A2
:10019A00BA81ED91A983BA831E2FE03019F0A12FFD
:1001AA00ECDFF5CFAAE0E9DF188123960895BA9328
:1001BA00AA931A930A93AA81BB8112960E94E0021B
:1001CA00309759F1AA81BB8114960E94E0028F01EF
:1001DA00309761F00230E0E01E0798F0F80131979D
:1001EA008F01AA81BB811496ED93FC93AA81BB81EE
:1001FA001296ED91FD913196FE93EE933197AC8173
:10020A00A083AA81BB810E94E002FF232AF0ED911C
:10021A00FD913196FE93EE9306C0AA81BB81EFEF62
:10022A00FFEFED93FC931981088125960895BA93FF
:10023A00AA9326970E94CA0210E0AC85BD85E0E029
:10024A00F0E0ED93FC93EA89FB893196EA8BFB8B0C
:10025A003197E4912E2FE03009F41DC1E12FE030EF
:10026A0039F4253211F411E002C00E94AD0212C124
:10027A00E130A9F4253219F40E94AD020AC112E054
:10028A0040E000E02D3211F401E004C12B3211F4F8
:10029A004BE200C1203211F440E2FCC002C0E2305D
:1002AA0039F450E013E0203311F40068F3C003C0BE
:1002BA00E33009F0EFC0203310F02A3308F007C00A
:1002CA00AAE05A9F502DE22FE0535E0FE3C0E22FBF
:1002DA00E33649F40E94B402E889F989A481AA9311
:1002EA000E94BA02D6C0E33741F40E94B4020E94C7
:1002FA00C0020E9494021E2F0AC0E03761F40E94D5
:10030A00B4020E94C0020E94A0021E2F086002606E
:10031A000F7730E03CC0E43611F0E93611F404609E
:10032A0002C0E53731F4E4E5F0E0EE83FF8315E03F
:10033A000CC0E83511F4086003C0E83709F0A9C019
:10034A00EEE5F0E0EE83FF8314E002FF17C00E949F
:10035A00B402A889B9891496ED91FD91EA87FB87C1
:10036A00AB85AA232AF40E94DC02EA87FB874DE2C6
:10037A00403011F01F5F01C00B7F09C00E94B40218
:10038A00A889B98914960E94E002EA87FB8700FDD2
:10039A0011C0151778F407FF08C002FF04C00B7FCD
:1003AA00242F115001C020E301C020E20E94AD02B7
:1003BA005150EFCF312F01FF17C03030A1F003FFAA
:1003CA0006C0EE81FF812591EE83FF8305C0AE81D1
:1003DA00BF812D91AE83BF830E94AD02503009F0D8
:1003EA0051503150EACF4BC020E3EE81FF810E9489
:1003FA00E402E887F987EE81FF813296EE83FF8374
:10040A00E885F985AA85BB85AE17BF0750F02F5F2F
:10041A00A885B985EA85FB85EA1BFB0BEA87FB877A
:10042A00EFCF2A3328F003FF02C0295F01C0295DFC
:10043A0004FD1AC0213320F4A885B985119709F45F
:10044A0009C0531710F000FF01C013C020E207FFD4
:10045A000BC020E3006102FF07C00B7F4A930E9492
:10046A00BA02503009F051500E94AD02503009F0E2
:10047A0051503150A885B985129708F0B5CF00FFC1
:10048A0008C0503031F05150E0E2EA930E94BA02BB
:10049A00F8CF10E0D8CEAC85BD85ED91FD910E94D4
:1004AA00D10264960895FF92F82E26970E94CC02F4
:1004BA00DE011C960E94D8020E94E002309719F4CD
:1004CA00EFEFFFEF27C0DE0116960E94D8028D01DA
:1004DA00DE011C960E94D802ED91FD91EE83FF8306
:1004EA00E0E0E887E987DE011A960E94D802ED91DA
:1004FA00FD91FA93EA931A930A93ECEDF0E0FA93DA
:10050A00EA93DE011A9693DE9F01AE81BF81E0E095
:10051A00EC93F9010E94D3022A96FF900895BA93A8
:10052A00AA93A991B991EE27FF276D91662311F03D
:10053A003196FBCF0895BA93AA93AA27BB27E991CC
:10054A00F9910590002011F01196FBCFFD01089555
:10055A002A93AD85BE85EF85F88909950895E889BE
:10056A00F9893497E88BF98B0895AD85BE85EF85B7
:10057A00F88909950895A889B9891496ED91FD918C
:10058A00EE83FF83AE81BF8108955A934A933A93CB
:10059A002A931A930A9308955D814C813B812A819B
:1005AA001981088108950024AF0DB01D0895F195B1
:1005BA00E195F0400895ED91FC9111970895059009
:1005CA00F491E02D08957A936A93FA93EA93089541
:00000001FF
