:100000000C942A000C9400000C9400000C94000046
:100010000C9400000C9400000C9400000C94000060
:100020000C9400000C9400000C9400000C94000050
:100030000C9400000C9400000C9400000C94000040
:100040000C9400000C9400000C9400000C94000030
:100050000C940000F894EE27ECBBF1E0F5BFE5BF8F
:100060008DE0A2E0BB27ED938A95E9F780E098E068
:10007000A0E6ED930197E9F7EFE5EDBFE8E0EEBF0D
:10008000C0E6D2E00C9479000E94C3011A9310E0FC
:10009000AC81AA2332F4E0E0E983EA83EB83EC83CA
:1000A0000FC0A981BA818B819C8137D00E949B01AE
:1000B00009F008F405C031D0E983FA836B837C83AF
:1000C000A981BA818B819C81E0E0F0E06FE773E465
:1000D0000E940801DF01CB0120D00E945601E98374
:1000E000FA836B837C830E94BF001E2F18812596A4
:1000F000089509D0A0E0B0E088E492E4C5DF1E2FA7
:1001000013BDFFCFFFCF8F9A9798E0E0E2BDEBE6FB
:10011000E5BDE0E0E4BDE3BD0895E0E0F0E068ECBB
:1001200072E40895552342F4503811F4E0FF04C0FE
:100130003196691F791F6BF050E8572711F45F93D0
:1001400055C05F3F31F0660F000C57956795752FCE
:1001500008955F9300200AF055C04EC050E8192E54
:100160001522880F991F9527550F879550E8072E60
:100170000522660F771F7527550F679508956894B8
:1001800001C0E8945F93F2DF703818F07F3F08F405
:100190002DC056E1571BAAF4519558300EF4593032
:1001A00030F0EFEFFFEF6FEF7FE777F91AC07727B7
:1001B0005523B9F0EE0FFF1F661F771F5A95D1F731
:1001C00010C07727583028F0EF2FF62F672F5850A0
:1001D000F9CF552331F076956795F795E7955A95C0
:1001E000D1F700200AF4C7D05F910895EE27FF27CA
:1001F000662777275F910895EFEFFFEF6FE77FEFB7
:100200005F910895EFEFFFEF6FE77FE75F9108954C
:100210005F93A4DF703851F3903841F301240894C0
:10022000791F23F41CF300203AF3ECCF0F921F93B5
:100230002F933F934F93112722279927689FA0015F
:100240008F9F302D410D591F6B9F300D411D591F40
:100250008E9F27D0BF9F25D06A9F23D0BE9F1DD0E1
:10026000AF9F1BD0AE9F110D291F391F491F591F6A
:10027000E32FF42F652F522F4F913F912F911F9114
:100280000F9066232AF0550FEE1FFF1F661F02C056
:1002900073954BF247DF5F910895100D211D391FB3
:1002A00002C0200D311D491F591F08955F9356DF6D
:1002B000703821F411200AF49FCFA4CF903809F4AC
:1002C00095CF01240894970B1BF4D4F30020F3CFAF
:1002D000792F1F932F933F934F9311241127222798
:1002E00033274427552790E2AE17BF0786074107FB
:1002F00030F0AE1BBF0B860B410B089401C08894F5
:10030000551F221F331F111CAA1FBB1F881F441F0C
:100310009A9551F7F901612D4F913F912F911F91BE
:10032000662332F0550FEE1FFF1F661F7A9543F2CA
:10033000F9DE5F91089599239AF0772342F0971799
:1003400048F029F4AE17BF07860720F031F09894E3
:10035000889408959894089408951894889408951A
:100360007723C2F7971798F3A9F7EA17FB076807EF
:1003700088F399F3ECCFF09560957095E195FF4F78
:100380006F4F7F4F08959A938A93BA93AA930895D3
:00000001FF
