:020000000C945E
:100002002F000C9400000C9400000C9400000C943F
:1000120000000C9400000C9400000C9400000C945E
:1000220000000C9400000C9400000C9400000C944E
:1000320000000C9400000C9400000C9400000C943E
:1000420000000C9400000C9400000C9400000C942E
:10005200000007000100020054000000F894EE279F
:10006200ECBBF1E0FBBFEBBFE5BFF8E1F1BDE1BDE9
:100072008DE0A2E0BB27ED938A95E9F780E098E056
:10008200A0E6ED930197E9F7E6E5F0E08591959119
:10009200009761F0A591B59105901590BF01F0010F
:1000A20005900D920197E1F7FB01F0CFEFE5EDBF6F
:1000B200E8E0EEBFC0E6D2E00C9466008898809A31
:1000C2008998819AA59AAD980895F8DF809902C01F
:1000D20020FC01C003C0E89420F8AD9A809B02C0C6
:1000E200689420F8819902C021FC01C003C0E89401
:1000F20021F8AD98819B02C0689421F8E7CFFFCF29
:00000001FF
