:060000000C9436000C9484
:1000060000000C9400000C9400000C9400000C946A
:1000160000000C9400000C9400000C9400000C945A
:1000260000000C9400000C9400000C9400000C944A
:1000360000000C9400000C9400000C9400000C943A
:1000460000000C9400000C9400000C940000370093
:1000560038001037003800083700380004000F0059
:10006600600254000000F894EE27ECBBF1E0F5BF07
:10007600E5BF8DE0A2E0BB27ED938A95E9F780E026
:1000860098E0A0E6ED930197E9F7E4E6F0E08591C4
:100096009591009761F0A591B59105901590BF01D6
:1000A600F00105900D920197E1F7FB01F0CFEFE526
:1000B600EDBFE8E0EEBFC0E6D2E00C94620020D0CF
:1000C600A0E6B2E02AD0A0E6B2E001D3A0E6B2E014
:1000D60017D3A0E6B2E02CD3A0E6B2E0D5D10E94B9
:1000E600CC03A8D0A0E6B2E030D20E94CC0305D162
:1000F600A0E6B2E08BD20E94CC0362D1FFCFFFCF45
:10010600BC9AC49ABD9AC598BE98C698BF9AC79815
:10011600E0E5EDB9E0E0EEB9089541D340D3ED91C5
:10012600FD91FA93EA93EA81FB81A481AA93A981BE
:10013600BA81EC91A881EA2BA981BA81EC93239626
:100146002296A881B981BA93AA93E881F981A281FE
:10015600B381BA93AA93EA81FB81A481AA93A98168
:10016600BA81EC91A881EA2BA981BA81EC932396F6
:100176002296A881B981BA93AA93E881F981A581CB
:10018600B681BA93AA93EA81FB81A185AA93A98134
:10019600BA81EC91A881EA2BA981BA81EC932396C6
:1001A6002296A881B981BA93AA93E881F981A78199
:1001B600B085BA93AA93EA81FB81A185AA93A98106
:1001C600BA81EC91A881EA2BA981BA81EC93239696
:1001D6002296A881B981BA93AA93E881F981A2856A
:1001E600B385BA93AA93EA81FB81A685AA93A981CE
:1001F600BA81EC91A881EA2BA981BA81EC93239666
:100206002296A881B981BA93AA93E881F981A48537
:10021600B585BA93AA93EA81FB81A685AA93A9819B
:10022600BA81EC91A881EA2BA981BA81EC93239635
:100236002296ADC2AA93A981BA81BA93AA93E881FC
:10024600F981A281B381BA93AA93EA81FB81A48141
:10025600AA93A981BA81AC91E881E095EA23A981A4
:10026600BA81EC932396229683E08A95F1F7A1E171
:10027600AA93A881AA931A930A9308EE13E0EA8137
:10028600EFB9779906C00150104011F4EFEF02C0A4
:10029600F8CFEFB11981088123962196A881AA93F8
:1002A600A881AA931A930A9308EE13E0EA81EFB99C
:1002B600779906C00150104011F4EFEF02C0F8CF55
:1002C600EFB119810881239621966ED2BA93AA932B
:1002D600E881F981A281B381BA93AA93EA81FB816D
:1002E600A481AA93A981BA81EC91A881EA2BA9815C
:1002F600BA81EC9323962296C5C0AA93A981BA81A6
:10030600BA93AA93E881F981A281B381BA93AA9399
:10031600EA81FB81A481AA93A981BA81AC91E88183
:10032600E095EA23A981BA81EC932396229683E08D
:100336008A95F1F7A2E1AA93A881AA931A930A9340
:1003460008EE13E0EA81EFB9779906C00150104034
:1003560011F4EFEF02C0F8CFEFB1198108812396AF
:100366002196A881AA93A881AA931A930A9308EEC4
:1003760013E0EA81EFB9779906C00150104011F4F5
:10038600EFEF02C0F8CFEFB11981088123962196CD
:100396000BD2BA93AA93E881F981A281B381BA9369
:1003A600AA93EA81FB81A481AA93A981BA81EC91DF
:1003B600A881EA2BA981BA81EC932396229662C082
:1003C600AA93A981BA81BA93AA93E881F981A281F5
:1003D600B381BA93AA93EA81FB81A481AA93A981E6
:1003E600BA81AC91E881E095EA23A981BA81EC93C0
:1003F6002396229683E08A95F1F7A3E1AA93A88132
:10040600AA931A930A9308EE13E0EA81EFB9779953
:1004160006C00150104011F4EFEF02C0F8CFEFB163
:100426001981088123962196A881AA93A881AA9367
:100436001A930A9308EE13E0EA81EFB9779906C09A
:100446000150104011F4EFEF02C0F8CFEFB119815F
:10045600088123962196A8D1BA93AA93E881F981B7
:10046600A281B381BA93AA93EA81FB81A481AA935C
:10047600A981BA81EC91A881EA2BA981BA81EC9372
:1004860023962296239608958AD1BA93AA93E88151
:10049600F981A281B381BA93AA93EA81FB81A481EF
:1004A600AA93A981BA81AC91E881E095EA23A98152
:1004B600BA81EC932396229683E08A95F1F7A1E21E
:1004C600AA93A881AA931A930A9308EE13E0EA81E5
:1004D600EFB9779906C00150104011F4EFEF02C052
:1004E600F8CFEFB11981088123962196A0E0AA934F
:1004F600A881AA931A930A9308EE13E0EA81EFB94A
:10050600779906C00150104011F4EFEF02C0F8CF02
:10051600EFB119810881239621964CD1BA93AA93FB
:10052600E881F981A281B381BA93AA93EA81FB811A
:10053600A481AA93A981BA81EC91A881EA2BA98109
:10054600BA81EC932396229622C129D1BA93AA9313
:10055600E881F981A281B381BA93AA93EA81FB81EA
:10056600A481AA93A981BA81AC91E881E095EA2396
:10057600A981BA81EC932396229683E08A95F1F7B6
:10058600A2E2AA93A881AA931A930A9308EE13E00B
:10059600EA81EFB9779906C00150104011F4EFEFE8
:1005A60002C0F8CFEFB11981088123962196A0E009
:1005B600AA93A881AA931A930A9308EE13E0EA81F4
:1005C600EFB9779906C00150104011F4EFEF02C061
:1005D600F8CFEFB11981088123962196EBD0BA9313
:1005E600AA93E881F981A281B381BA93AA93EA8199
:1005F600FB81A481AA93A981BA81EC91A881EA2BF7
:10060600A981BA81EC9323962296C1C0C8D0BA9329
:10061600AA93E881F981A281B381BA93AA93EA8168
:10062600FB81A481AA93A981BA81AC91E881E09566
:10063600EA23A981BA81EC932396229683E08A95D0
:10064600F1F7A3E2AA93A881AA931A930A9308EE54
:1006560013E0EA81EFB9779906C00150104011F412
:10066600EFEF02C0F8CFEFB11981088123962196EA
:10067600A0E0AA93A881AA931A930A9308EE13E01E
:10068600EA81EFB9779906C00150104011F4EFEFF7
:1006960002C0F8CFEFB119810881239621968AD03E
:1006A600BA93AA93E881F981A281B381BA93AA93F6
:1006B600EA81FB81A481AA93A981BA81EC91A881E0
:1006C600EA2BA981BA81EC932396229660C067D063
:1006D600BA93AA93E881F981A781B085BA93AA93C0
:1006E600EA81FB81A185AA93A981BA81AC91E881AF
:1006F600E095EA23A981BA81EC932396229647C016
:100706004ED0BA93AA93E881F981A781B085BA93AE
:10071600AA93EA81FB81A185AA93A981BA81EC916A
:10072600A881EA2BA981BA81EC93239622962FC041
:1007360036D0BA93AA93E881F981A485B585BA9390
:10074600AA93EA81FB81A685AA93A981BA81AC9175
:10075600E881E095EA23A981BA81EC932396229653
:1007660029D0BA93AA93E881F981A485B585BA936D
:10077600AA93EA81FB81A685AA93A981BA81EC9105
:10078600A881EA2BA981BA81EC9323962296229618
:100796000895E0E6F2E0FA93EA93A9E10895BA93A0
:1007A600AA93A881B981089583E08A95F1F7A98172
:1007B600BA81089583E08A95F1F7A881B9810895F1
:00000001FF
