:0E0000000C9459000C9400000C9400000C9419
:10000E0000000C9400000C9400000C9400000C9462
:10001E0000000C9400000C9400000C9400000C9452
:10002E0000000C9400000C9400000C9400000C9442
:10003E0000000C94C0000C9400000C9400000C9472
:10004E0000000C9400008894888384848380102799
:10005E00E80364000A000100001000011000010016
:10006E000000496E7075743A00206D5600200054E1
:10007E00656D703A004C4D33352053656E736F725B
:10008E00000001002D4E414E00494E46000080C03A
:10009E00010007006E0001006802900002006C0271
:1000AE009C000000F894EE27ECBBF1E0F5BFE5BF35
:1000BE00F8E1F1BDE1BD8DE0A2E0BB27ED938A959D
:1000CE00E9F780E098E0A0E6ED930197E9F7EEE915
:1000DE00F0E085919591009761F0A591B59105900D
:1000EE001590BF01F00105900D920197E1F7FB010C
:1000FE00F0CFEFE5EDBFE8E0EEBFC0E6D2E00C9446
:10010E003C01A0E10E94CE020E948B0208950E9443
:10011E00DC036097E0E0EA93A0E00E947E02A0E795
:10012E00B0E00E94BB02EC89FD896E897F890E9436
:10013E005003A7E7B0E00E94BB02ABE7B0E00E941D
:10014E00BB02E0E0EA93A1E00E947E02ADE7B0E0E0
:10015E000E94BB02E889F9896A897B890E94500353
:10016E00A0E00E949702ABE7B0E00E94BB02689647
:10017E000895AA93BA93EA93FA93EFB7EA930E947B
:10018E005B0319F044B055B002C045B05524E1E010
:10019E007E2EE991EFBFF991E991B991A991189548
:1001AE00E6B1E87FE460E6B9E7B1EF73E064E7B982
:1001BE00E7B1EF7DE7B93398E0B7EF71E0BF35985F
:1001CE00E7B1E07EE7B9379A83E08A95F1F7369882
:1001DE00F8940895AA93E6B1F0E00E94BC030E9441
:1001EE00BA03E17009F1E7B1E07EA881EA2BE7B925
:1001FE0083E08A95F1F7369AE6B1F0E00E94BA03F1
:10020E00E170F070A1E0B0E0EA27FB273097A1F78C
:10021E00349A0E945B0321F0E4B1F5B10C94F9021B
:10022E00E5B1F0E00C94F902E0E0F0E00C94F90294
:10023E00AA931A930A93EA81EE0FEE0FEE0FE06483
:10024E000E2F10E0183068F40A930395EC81FD81AF
:10025E003196EC83FD833197A4910E9476021F5F45
:10026E00F1CF19810881259608954BDFE4E5F0E082
:10027E00FA93EA93A0E0DCDF93DFA7E0ABDF66271B
:10028E0077270E945A04AAE0B8E280EA9BE30E9414
:10029E00E304A0E0B0E08AE794E40E94E304E09374
:1002AE006002F09361026093620270936302A09108
:1002BE006002B091610280916202909163020E948D
:1002CE006903E0936402F093650260936602709393
:1002DE006702E0916002F09161026091620270919A
:1002EE0063020E94D703A0916402B09165028091CF
:1002FE006602909167020BDFAAEFB0E00E949505AF
:10030E00BCCFFFCFBA93AA932497E0E0E883E983AA
:10031E00EA83EFE3EB831A930A93EB85FC85EF3FB9
:10032E00AFEFFA0739F40E947003A2E9B0E00E9421
:10033E00FB02B1C0EF3FAFE7FA0739F40E9470033A
:10034E00A3E9B0E00E94FB02A6C0AC85AA2362F42A
:10035E00E985FA856B857C850E94EE030E94750304
:10036E000E947A03EDE2EC93A885A73010F0E6E048
:10037E00E8871885E12F1150E03039F00E94810393
:10038E000E9469030E948603F5CF0E948B030E9490
:10039E0094040E94750310E0E0E0F0E060E87FE373
:1003AE000E9486030E948B030E94750588F00E94AE
:1003BE0081030E9494030E9486031F5F173238F058
:1003CE000E947003A7E9B0E00E94FB0264C0EACF6E
:1003DE00103029F40E947A03E0E3EC932FC0E12F52
:1003EE001150E03059F10E9481030E946903A0E090
:1003FE00B0E080E09FE30E949404DF01CB010E94F5
:10040E0039030E9486030E948B030E9431050E94CD
:10041E0021040E2F0E947A03E02FE05DEC93E02F73
:10042E00F0E00E9481030E94C3030E945A040E94BE
:10043E00E3040E949B030E94A003D1CFE885E03025
:10044E0031F10E947A03EEE2EC93E885E150E88701
:10045E00EF5FE9F00E949B030E9494030E947503D4
:10046E00E985FA856B857C850E9421040E2F0E94FA
:10047E007A03E02FE05DEC93E02FF0E00E949B0307
:10048E000E94C3030E945A040E94A003DECFAE81D5
:10049E00BF81E0E0EC93198108812D960895AA930F
:1004AE00E2B3EF70AE2FE881E07FEA2BE2BB82E091
:1004BE008A95F1F7929A82E08A95F1F7929882E006
:1004CE008A95F1F78FC0AA93A881E9DFE881E295BA
:1004DE00E883A881E4DF81E18A95F1F783C0AA93CE
:1004EE00A981F1DF909AA881EEDF90980BC0AA93B4
:1004FE00E881F0E0E459FD4FE081A981AE0FE3DF22
:10050E006980988022960895A2E00E94A503ACE02F
:10051E00DADFA1E00E94A503E0E09E2E6E2E089584
:10052E00AA93A881AA3011F0681448F0E0E0EA938B
:10053E009394A92DDCDFA881AA3009F453C06394EB
:10054E00909AA881C0DF90984DC0BA93AA931A933F
:10055E00A981BA81ED91A983BA831E2FE03019F0DB
:10056E00A12FDEDFF5CF10C0BA93AA931A93E981BB
:10057E00FA813196E983FA833197E4911E2FE030A8
:10058E0019F0A12FCDDFF3CF188123960895AA93EA
:10059E00E1B3E06FE1BB8A9A889A899A9298909813
:1005AE0091988880E881E058E0936E02E881E054EB
:1005BE00E0936F02A4E1B0E00E9495050E94AB03A8
:1005CE000E94AB030E94AB03A0E269DF81E28A9531
:1005DE00F1F7A8E278DFA4E076DFA5E874DFA6E005
:1005EE0072DF92DF21960895BA93AA93E991F99159
:1005FE00A991B991CD0105900D920020E1F7FC0172
:10060E0008950E94DC037B816A81F981E88177FB82
:10061E00770F67FD7160972F9E5781F078F09831B4
:10062E0090F4AA27BB27882708948795B795A79596
:10063E009A95D1F7EA23FB23682305C0E894772720
:10064E00EE27FF2766276F77769508F4606877F9AF
:10065E00A991B99189919991EA17FB0768077907D2
:10066E0097FB08950E94DC030E94CD030E940803AD
:10067E000E94D20319F40E94C80309C0E6F70E9433
:10068E00C803A0E0B0E080E89FE30E948D042496AA
:10069E0008950E94D703E1E0EA93DE0115960E94C9
:1006AE008901DE010C94AC02E7B1F0E0F595E79517
:1006BE000E94BA03E170F070A1E0B0E0EA27FB27D8
:1006CE0030970895EDECFCEC6CEC7DE30E94E304B6
:1006DE000895EE81FF81FA93EA930895E987FA87E8
:1006EE006B877C870895AE81BF811196AE83BF83E1
:1006FE0011970895AA81BB818C819D810895EA830B
:10070E00FB836C837D830895EA81FB816C817D81FF
:10071E00A985BA858B859C850895E0E0F0E060E2BE
:10072E0071E40E94E3040895A985BA858B859C85A2
:10073E0008950E94E1030E948D04D0CF0E946A02A8
:10074E00A3E0B0E00C949505A0E30E94560281E26E
:10075E008A95F1F70895F09560957095E195FF4FA4
:10076E006F4F7F4F0895F595E795F595E795F595BC
:10077E00E795F595E79508956F2F660F660B762F23
:10078E000895E881F9816A817B810895A881B981F4
:10079E008A819B810895E883F9836A837B83089518
:1007AE007A936A93FA93EA9308959A938A93BA93F3
:1007BE00AA930895182E862F612D192E972F712D1D
:1007CE001B2EBF2FF12D1A2EAE2FE12D089530972F
:1007DE006040704009F070580895552342F4503827
:1007EE0011F4E0FF04C03196691F791F6BF050E8D9
:1007FE00572711F45F93CFC05F3F31F0660F000CA7
:10080E0057956795752F08955F9300200AF0CEC017
:10081E00C7C050E8192E1522880F991F9527550F1E
:10082E00879550E8072E0522660F771F7527550FFF
:10083E0067950895689401C0E8945F93F2DF70386D
:10084E0018F07F3F08F4A7C056E1571BAAF4519544
:10085E0058300EF4593030F0EFEFFFEF6FEF7FE7C7
:10086E0077F91AC077275523B9F0EE0FFF1F661FD1
:10087E00771F5A95D1F710C07727583028F0EF2FF1
:10088E00F62F672F5850F9CF552331F0769567958F
:10089E00F795E7955A95D1F700200AF45CDF5F9142
:1008AE000895689401C0E894309760407040B1F0AC
:1008BE00002426F0772312F400944DDF172E7EE1EC
:1008CE00112032F07A95EE0FFF1F661F111CF9CF23
:1008DE00EF2FF62F612D5F938ADF5F9108954F936F
:1008EE00AF01FD01DA01AB01BC01CA01402D012CA3
:1008FE00142E4F910895EA0FFB1F681F0895E0957F
:10090E00F0956095EF5FFF4F6F4F08955F9381DF16
:10091E00903871F150E8152604C05F937ADF903855
:10092E0039F1703821F1572F591B2BF112F4D7DF03
:10093E00FACF583118F0AA27BB278827583028F04D
:10094E00AB2FB82F88275850F9CF552329F086950D
:10095E00B795A7955A95D9F7502D512572F0CBDF43
:10096E0038F46795F795E795739513F41FC0B7DFC5
:10097E003EDF5F910895D8F7FBCFEA1BFB0B680BA8
:10098E0051F010F40094BBDF662392F3EE0FFF1FBD
:10099E00661F7A95CBF7EE27FF27BF015F9108956B
:1009AE00EFEFFFEF6FE77FEF5F910895EFEFFFEF50
:1009BE006FE77FE75F9108955F932BDF703859F3F0
:1009CE00903849F301240894791F23F424F300206E
:1009DE003AF3ECCF0F921F932F933F934F93112720
:1009EE0022279927689FA0018F9F302D410D591FF7
:1009FE006B9F300D411D591F8E9F27D0BF9F25D055
:100A0E006A9F23D0BE9F1DD0AF9F1BD0AE9F110DEE
:100A1E00291F391F491F591FE32FF42F652F522FFE
:100A2E004F913F912F911F910F9066232AF0550FF2
:100A3E00EE1FFF1F661F02C073954BF2CEDE5F9155
:100A4E000895100D211D391F02C0200D311D491FA3
:100A5E00591F08955F93DDDE703821F411200AF4DA
:100A6E009FCFA4CF903809F496CF01240894970B0A
:100A7E001BF4D4F30020F3CF792F1F932F933F93C2
:100A8E004F931124112722273327A90190E2AE1785
:100A9E00BF078607410730F0AE1BBF0B860B410B1D
:100AAE00089401C08894551F221F331F111CAA1FC2
:100ABE00BB1F881F441F9A9551F7F901612D4F9165
:100ACE003F912F911F91662332F0550FEE1FFF1F9E
:100ADE00661F7A954BF281DE5F91089599239AF005
:100AEE00772342F0971748F029F4AE17BF07860711
:100AFE0020F031F09894889408959894089408956D
:100B0E001894889408957723C2F7971798F3A9F746
:100B1E00EA17FB07680788F399F3ECCF109639F0C4
:100B2E00A8958AEF90E00197F1F71197C9F708950C
:00000001FF
