:0E0000000C942A000C9400000C9400000C9448
:10000E0000000C9400000C9400000C9400000C9462
:10001E0000000C9400000C9400000C9400000C9452
:10002E0000000C9400000C9400000C9400000C9442
:10003E0000000C9400000C9400000C9400000C9432
:10004E0000000C940000F894EE27ECBBF1E0FBBF2F
:10005E00EBBFE5BF8DE0A2E0BB27ED938A95E9F7F4
:10006E0080E094E0A0E6ED930197E9F7EFE5EDBFB0
:10007E00E4E0EEBFC0E6D2E00C9445000CD095D083
:10008E005DD1D6D05BD117D159D1A8EAB1E635D022
:10009E005DD0FECFFFCFE7E3F0E0FA93EA93A1E065
:1000AE00AA93A981BA811C90E881A1E00E94A901BE
:1000BE00E129A981BA81EC932396A0E0AA93E8E303
:1000CE00F0E0FA93EA93E1E0EA93AB81AA93AA8176
:1000DE00BB811C90E981A1E00E94A901E0951E223E
:1000EE00E881E170AE2FE9810E94A901E129AA8180
:1000FE00BB81EC93249621960895BA93AA93E88136
:10010E00F981E0936002F0936102A1E0AA93E8E323
:10011E00F0E0FA93EA93E1E0EA93AB81AA93AA8125
:10012E00BB811C90E981A1E00E94A901E0951E22ED
:10013E00E881E170AE2FE9810E94A901E129AA812F
:10014E00BB81EC932496219622960895A09160028D
:10015E00B09161020E94B10140F4A0E6B2E0ED91CF
:10016E00FD913197FE93EE931FC0A0E0AA93E8E3B2
:10017E00F0E0FA93EA93E1E0EA93AB81AA93AA81C5
:10018E00BB811C90E981A1E00E94A901E0951E228D
:10019E00E881E170AE2FE9810E94A901E129AA81CF
:1001AE00BB81EC93249621960895A1E0AA93E8E3EF
:1001BE00F0E0FA93EA93E1E0EA93AB81AA93AA8185
:1001CE00BB811C90E981A1E00E94A901E0951E224D
:1001DE00E881E170AE2FE9810E94A901E129AA818F
:1001EE00BB81EC9324962196A0E5B0E00E94B50168
:1001FE00A0E0AA93E8E3F0E0FA93EA93E1E0EA9351
:10020E00AB81AA93AA81BB811C90E981A1E00E94D7
:10021E00A901E0951E22E881E170AE2FE9810E94CE
:10022E00A901E129AA81BB81EC9324962196089518
:10023E00A1E0AA93E8E3F0E0FA93EA93E1E0EA930F
:10024E00AB81AA93AA81BB811C90E981A1E00E9497
:10025E00A901E0951E22E881E170AE2FE9810E948E
:10026E00A901E129AA81BB81EC9324962196A8ECE1
:10027E00B0E00E94B501A0E0AA93E8E3F0E0FA93A3
:10028E00EA93E1E0EA93AB81AA93AA81BB811C9029
:10029E00E981A1E00E94A901E0951E22E881E170AA
:1002AE00AE2FE9810E94A901E129AA81BB81EC93BD
:1002BE00249621960895A1E0AA93E8E3F0E0FA933C
:1002CE00EA93E1E0EA93AB81AA93AA81BB811C90E9
:1002DE00E981A1E00E94A901E0951E22E881E1706A
:1002EE00AE2FE9810E94A901E129AA81BB81EC937D
:1002FE0024962196A4EFB1E00E94B501A0E0AA9346
:10030E00E8E3F0E0FA93EA93E1E0EA93AB81AA9393
:10031E00AA81BB811C90E981A1E00E94A901E09510
:10032E001E22E881E170AE2FE9810E94A901E12928
:10033E00AA81BB81EC93249621960895A0EDB7E097
:10034E000C94B501EE230E2EEA2F19F0EE0F0A943F
:10035E00E9F7089500240A160B060895109639F051
:10036E00A89580ED97E00197F1F71197C9F70895D9
:00000001FF
