:020000000C945E
:1000020051000C9400000C9400000C9400000C941D
:1000120000000C9400000C9400000C9400000C945E
:1000220000000C9400000C9400000C9400000C944E
:1000320000000C9400000C9400000C9400000C943E
:1000420080000C9400000C9400000C9400000C94AE
:10005200000088948883848483801027E8036400E6
:100062000A000100001000011000010000005465A8
:100072006D703A002000417665726167650001008B
:100082002D4E414E00494E46000080C0010007003F
:100092006E00010060028000020064028C00000019
:1000A200F894EE27ECBBF1E0F5BFE5BFF8E1F1BD56
:1000B200E1BD8DE0A2E0BB27ED938A95E9F780E0F0
:1000C20098E0A0E6ED930197E9F7EEE8F0E085917C
:1000D2009591009761F0A591B59105901590BF019A
:1000E200F00105900D920197E1F7FB01F0CFEFE5EA
:1000F200EDBFE8E0EEBFC0E6D2E00C94FC00AA93AC
:10010200BA93EA93FA93EFB7EA930E94C80319F0FD
:1001120044B055B002C045B05524E1E07E2EE991CD
:10012200EFBFF991E991B991A9911895E6B1E87FEC
:10013200E460E6B9E7B1EF73E064E7B9E7B1EF7DF8
:10014200E7B93398E0B7EF71E0BF3598E7B1E07EE9
:10015200E7B9379A83E08A95F1F73698F8940895CB
:10016200AA93E6B1F0E00E943C040E943A04E170D6
:1001720009F1E7B1E07EA881EA2BE7B983E08A952D
:10018200F1F7369AE6B1F0E00E943A04E170F070BD
:10019200A1E0B0E0EA27FB273097A1F7349A0E944A
:1001A200C80321F0E4B1F5B10C942403E5B1F0E009
:1001B2000C942403E0E0F0E00C942403AA931A9335
:1001C2000A93EA81EE0FEE0FEE0FE0640E2F10E0BD
:1001D200183068F40A930395EC81FD813196EC8323
:1001E200FD833197A4910E946A021F5FF1CF1981AA
:1001F20008812596089528970E94D603E0E0EB83B4
:10020200EC83ED83EE83EF83FF2400E010E035D032
:100212008DDFE4E5F0E0FA93EA93A0E0CFDFA7E018
:100222009FDF8F01D8010E9426038F01D8010E940F
:100232005D03E030C9F0F801662777270E94FE04CB
:10024200AAE1B7E68CE990E40E948705EC83FD837E
:100252006E837F83AC81BD818E819F810E94DB038F
:100262000E9476046894F0F8F0FE05C0E894F0F875
:100272000E94710408D0D3CFFFCFA0E10E94F30205
:100282000E94970208950E9480046097E0E0EA933A
:10029200A0E00E948702A0E7B0E00E94CF02E889B6
:1002A200F9896A897B890E947B04E1E0EA93DE0195
:1002B20015960E947101DE010E94C002A0E00E9418
:1002C200A602A6E7B0E00E94CF02E0E0EA93A1E036
:1002D2000E948702A8E7B0E00E94CF0264960895C8
:1002E200BA93AA9324970E94D603EFE3EB831A935F
:1002F2000A93EB85FC85EF3FAFEFFA0739F40E94D2
:10030200E203A2E8B0E00E94BB03B1C0EF3FAFE757
:10031200FA0739F40E94E203A3E8B0E00E94BB03AB
:10032200A6C0AC85AA2362F4E985FA856B857C8533
:100332000E9492040E94E7030E94EC03EDE2EC9318
:10034200A885A73010F0E6E0E8871885E12F115064
:10035200E03039F00E94F3030E94DB030E94F803AD
:10036200F5CF0E94FD030E9438050E94E70310E0CA
:10037200E0E0F0E060E87FE30E94F8030E94FD0302
:100382000E94190688F00E94F3030E9406040E944C
:10039200F8031F5F173238F00E94E203A7E8B0E0CB
:1003A2000E94BB0364C0EACF103029F40E94EC0320
:1003B200E0E3EC932FC0E12F1150E03059F10E949D
:1003C200F3030E94DB03A0E0B0E080E09FE30E9421
:1003D2003805DF01CB010E94A4030E94F8030E94AA
:1003E200FD030E94D5050E94C5040E2F0E94EC0356
:1003F200E02FE05DEC93E02FF0E00E94F3030E9417
:1004020043040E94FE040E9487050E940D040E947C
:100412001204D1CFE885E03031F10E94EC03EEE224
:10042200EC93E885E150E887EF5FE9F00E940D0464
:100432000E9406040E94E703E985FA856B857C85A4
:100442000E94C5040E2F0E94EC03E02FE05DEC93A6
:10045200E02FF0E00E940D040E9443040E94FE047B
:100462000E941204DECFAE81BF81E0E0EC931981DD
:1004720008812D960895FFE0FA95F1F70895A1B34A
:10048200AF70A1BB919A9098F6DF929AF4DFA0B375
:100492009298F1DF929AEFDF9298A7FDF5CF089537
:1004A200A07FAB2BA2BB929A0E943C0292980E9420
:1004B2003C020895AA939198A1B3A76FA1BBB2B3CE
:1004C200BF70A881EDDFA881A295EADF919A0C9412
:1004D2002403AA930E944002A9810E941704909AC1
:1004E200A881E8DF0C947103929A0E943C02E0B367
:1004F20092980E943C02E07F08950E943C02F4DF41
:10050200AE2FF2DF9198E295EA2B0895AA930E940A
:100512004002E881F0E0EC59FD4FE081A981AE0F85
:100522000E945B02698098800C9471030E944002D1
:10053200A2E00E941704ACE00E941704A1E00E940E
:100542005B02E0E09E2E6E2E0895AA93EF93FF9336
:10055200A8816894AA3019F0E894681430F0939452
:10056200E0E0EA93A92DD2DF36F0639488DF909A17
:10057200A8810E945B02FF91EF910C942403BA932D
:10058200AA931A93A981BA81ED91A983BA831E2FE6
:10059200E03019F0A12FD9DFF5CF10C0BA93AA939A
:1005A2001A93E981FA813196E983FA833197E491CA
:1005B2001E2FE03019F0A12FC8DFF3CF1881239648
:1005C2000895AA27BB271197F1F70895AA93919846
:1005D200A1B3A76FA1BBB2B3BF70A8810E945102A1
:1005E200919A31C0AA93929890988880E881E058B5
:1005F200E0936602E881E054E09367020E941B04E4
:100602000E941B040E941B04DCDFA0E2DFDFD9DFB3
:10061200A8E20E942004A4E00E942004A5E80E940F
:100622002004A1B3AF70A1BB919A0E947E02E53073
:1006320011F0E0E008C00E944002A6E00E945B02C6
:100642000E949702E1E021960895BA93AA93E88165
:10065200F9810E942404662777270E942D04E093E3
:100662006802F093690260936A0270936B02E091F0
:100672006E02EF5FE0936E02A0916E02AA30B9F4AF
:100682000E942404EAE0F0E060E070E00E94480486
:10069200E0936C02F0936D02E0E0E0936802E09375
:1006A2006902E0936A02E0936B02E0936E02E091CA
:1006B2006C02F0916D0214C0BA93AA93E0916F029A
:1006C200F0917002A881B981EA17FB0741F0E88135
:1006D200F981E0936F02F0937002E1E001C0E0E083
:1006E200229608950E9480047B816A81F981E881C3
:1006F20077FB770F67FD7160972F9E5781F078F037
:10070200983190F4AA27BB27882708948795B79534
:10071200A7959A95D1F7EA23FB23682305C0E894AD
:100722007727EE27FF2766276F77769508F46068AC
:1007320077F9A991B99189919991EA17FB0768070D
:10074200790797FB08950E9480040E9471040E9419
:1007520073030E94760419F40E946C0409C0E6F740
:100762000E946C04A0E0B0E080E89FE30E943105A3
:1007720024960895BA93AA93E991F991A991B9910E
:10078200CD0105900D920020E1F7FC010895E7B13B
:10079200F0E0F595E7950E943A04E170F070A1E06F
:1007A200B0E0EA27FB2730970895E0E0E883E98389
:1007B200EA830895EDECFCEC6CEC7DE30E94870586
:1007C2000895EE81FF81FA93EA930895E987FA8703
:1007D2006B877C870895AE81BF811196AE83BF83FC
:1007E20011970895AA81BB818C819D810895EA8326
:1007F200FB836C837D830895EA81FB816C817D811B
:10080200A985BA858B859C850895E0E0F0E060E2D9
:1008120071E40E9487050895A985BA858B859C8518
:1008220008950E9485040E943105D0CF0E945B0288
:100832000C9440020E94E202A0E30C94E7020E94A0
:100842005B020C94E202A0916802B091690280916D
:100852006A0290916B020895EA0FFB1F681F791FCD
:100862000895F09560957095E195FF4F6F4F7F4F1A
:100872000895F595E795F595E795F595E795F5953D
:10088200E79508956F2F660F660B762F08953F93B5
:100892004F935F9300241124A00130E2AA0FBB1FE3
:1008A200881F991F001C111C441F551F0E1A1F0A76
:1008B200460B570B28F40E0E1F1E461F571F01C072
:1008C200A1603A9559F7FD01BC01D001CA015F91BF
:1008D2004F913F910895E881F9816A817B81089562
:1008E200A881B9818A819B810895E883F9836A830B
:1008F2007B8308957A936A93FA93EA9308959A937D
:100902008A93BA93AA930895182E862F612D192ED1
:10091200972F712D1B2EBF2FF12D1A2EAE2FE12DE9
:10092200089530976040704009F07058089555233B
:1009320042F4503811F4E0FF04C03196691F791F68
:100942006BF050E8572711F45F93CFC05F3F31F04F
:10095200660F000C57956795752F08955F930020D9
:100962000AF0CEC0C7C050E8192E1522880F991F71
:100972009527550F879550E8072E0522660F771F9A
:100982007527550F67950895689401C0E8945F93A1
:10099200F2DF703818F07F3F08F4A7C056E1571B0A
:1009A200AAF4519558300EF4593030F0EFEFFFEFC2
:1009B2006FEF7FE777F91AC077275523B9F0EE0F6B
:1009C200FF1F661F771F5A95D1F710C0772758303F
:1009D20028F0EF2FF62F672F5850F9CF552331F01B
:1009E20076956795F795E7955A95D1F700200AF421
:1009F20038DF5F910895689401C0E89430976040B1
:100A02007040B1F0002426F0772312F4009429DF1D
:100A1200172E7EE1112032F07A95EE0FFF1F661F2E
:100A2200111CF9CFEF2FF62F612D5F938ADF5F91B3
:100A320008954F93AF01FD01DA01AB01BC01CA0178
:100A4200402D012C142E4F910895EA0FFB1F681FB1
:100A52000895E095F0956095EF5FFF4F6F4F089511
:100A62005F9381DF903871F150E8152604C05F93DF
:100A72007ADF903839F1703821F1572F591B2BF159
:100A820012F4D7DFFACF583118F0AA27BB278827EC
:100A9200583028F0AB2FB82F88275850F9CF55235C
:100AA20029F08695B795A7955A95D9F7502D5125D6
:100AB20072F0CBDF38F46795F795E795739513F4E9
:100AC2001FC0B7DF3EDF5F910895D8F7FBCFEA1B67
:100AD200FB0B680B51F010F40094BBDF662392F31A
:100AE200EE0FFF1F661F7A95CBF7EE27FF27BF0198
:100AF2005F910895EFEFFFEF6FE77FEF5F9108954A
:100B0200EFEFFFEF6FE77FE75F9108955F932BDFD2
:100B1200703859F3903849F301240894791F23F46B
:100B220024F300203AF3ECCF0F921F932F933F93BD
:100B32004F93112722279927689FA0018F9F302D5D
:100B4200410D591F6B9F300D411D591F8E9F27D09C
:100B5200BF9F25D06A9F23D0BE9F1DD0AF9F1BD0C1
:100B6200AE9F110D291F391F491F591FE32FF42F63
:100B7200652F522F4F913F912F911F910F90662316
:100B82002AF0550FEE1FFF1F661F02C073954BF22E
:100B9200CEDE5F910895100D211D391F02C0200D78
:100BA200311D491F591F08955F93DDDE703821F40E
:100BB20011200AF49FCFA4CF903809F496CF0124D4
:100BC2000894970B1BF4D4F30020F3CF792F1F93D3
:100BD2002F933F934F931124112722273327A901E3
:100BE20090E2AE17BF078607410730F0AE1BBF0B7E
:100BF200860B410B089401C08894551F221F331F96
:100C0200111CAA1FBB1F881F441F9A9551F7F90197
:100C1200612D4F913F912F911F91662332F0550F15
:100C2200EE1FFF1F661F7A954BF281DE5F910895DA
:100C320099239AF0772342F0971748F029F4AE17D8
:100C4200BF07860720F031F098948894089598940D
:100C5200089408951894889408957723C2F79717F3
:100C620098F3A9F7EA17FB07680788F399F3ECCF23
:00000001FF
