:100000000C942A001895000018950000189500001F
:10001000189500001895000018950000189500002C
:10002000189500001895000018950000189500001C
:10003000189500000C945A001895000018950000BF
:1000400018950000189500001895000018950000FC
:10005000189500008FE58DBFC8E3E0E24E2E88E0E2
:100060008EBFD8E0F8E05F2EA89584B7082E877F72
:1000700084BF88E1992781BD91BDEEEFF7E0A0E64E
:10008000B0E088278D933197E9F783E389B980E061
:1000900080BD88E18AB96624789486E880BD579A45
:1000A000E0E7F2E00E94B6000E94BD000C9456000A
:1000B000F894FFCF0F921F922F923F924F925F9230
:1000C0007F92AF92BF920F931F932F933F934F93C3
:1000D0005F936F937F938F939F93AF93BF93CF93D0
:1000E000DF93EF93FF938FB78F93A0E6B0E08CB1CF
:1000F0008C93EEE7F2E00E94B600A8E0B8E0E0E6FC
:10010000F0E00E94EE000E94AE000E94BD00EEE80A
:10011000F2E00E94B600A0E6B0E08C910E94C00020
:100120000E94BD008F918FBFFF91EF91DF91CF9122
:10013000BF91AF919F918F917F916F915F914F91FF
:100140003F912F911F910F91BF90AF907F905F9043
:100150004F903F902F901F900F901895A8E0B8E017
:100160008D91882311F00CD0FBCF08950E94CD0013
:10017000802D11F005D0FACF08958DE001D08AE0EE
:100180005D9BFECF8CB908953197F1F7089568947F
:1001900062F80895E89462F80895C89531960020B1
:1001A0000895000F111F221F331F08950095109509
:1001B000209530950F5F1F4F2F4F3F4F08950191AE
:1001C00010810EC001911191219130810BC00191DC
:1001D000108117FF05C03FEF2FEF04C000811127EA
:1001E0002227332737FF03C0E1DF8DE28D93CF93C2
:1001F000DF93CF92DF92EF92AA24BB24CC24DD249C
:10020000EE2440E2CAE0DD2755E093E38881890FC0
:1002100087FD9F7083FD907F891B89935A95A9F76D
:10022000C0DFAA1CBB1CCC1CDD1CEE1C4A9551F780
:10023000E894EFE0FF2782910ED0EB30E0F71EF05C
:1002400068948A2D0CD088278D93EF90DF90CF9003
:10025000DF91CF910895982F829501D0892F8F70CB
:10026000805D26F0803309F4089568948D93089595
:10027000507265737320616E79206B65790041530C
:1002800043494920446563696D616C3A20004153DC
:0E02900043494920436861723A202020200033
:00000001FF
