:100000000C943C000C9400000C9400000C94000034
:100010000C9400000C9400000C9400000C94000060
:100020000C9400000C9400000C9400000C94000050
:100030000C9400000C9400000C9400000C94000040
:100040000C9400000C9400000C9400000C94000030
:100050000C940000370038001037003800083700D3
:10006000380004003700380002000F00610254001D
:100070000500700264000000F894EE27ECBBF1E08C
:10008000F5BFE5BF8DE0A2E0BB27ED938A95E9F7C8
:1000900080E098E0A0E6ED930197E9F7EAE6F0E06A
:1000A00085919591009761F0A591B5910590159076
:1000B000BF01F00105900D920197E1F7FB01F0CF30
:1000C000EFE5EDBFE8E0EEBFC0E6D2E00C946800DB
:1000D0004AD0A1E6B2E0BA93AA93A881B98150D0E0
:1000E0002296A0E7B2E0BA93AA93A881B98148D03A
:1000F0002296E0E7F2E0FA93EA93A9E1AA93E98174
:10010000FA81FA93EA93E1E0EA93AB81CDD02396AA
:10011000A0E7B2E0BA93AA93E881F981FA93EA934F
:10012000A1E038D12296E1E6F2E0FA93EA93A2E365
:10013000AA93E981FA81FA93EA93E1E0EA93AB8129
:10014000B3D02396E1E6F2E0FA93EA93A6E9AA9304
:10015000E981FA81FA93EA93E2E0EA93AB81A4D0D1
:100160002396FFCFFFCFBC9AC49ABD9AC598BE987C
:10017000C698BF9AC798E0E5EDB9E0E0EEB90895FA
:10018000BA93AA93A881B981BA93AA93A881B98195
:10019000ED91FD91FA93EA93EA81FB81A481AA9300
:1001A000A981BA81EC91A881EA2BA981BA81EC934B
:1001B00023962296A881B981BA93AA93E881F981FE
:1001C000A281B381BA93AA93EA81FB81A481AA9305
:1001D000A981BA81EC91A881EA2BA981BA81EC931B
:1001E00023962296A881B981BA93AA93E881F981CE
:1001F000A581B681BA93AA93EA81FB81A185AA93CE
:10020000A981BA81EC91A881EA2BA981BA81EC93EA
:1002100023962296A881B981BA93AA93E881F9819D
:10022000A781B085BA93AA93EA81FB81A185AA939D
:10023000A981BA81EC91A881EA2BA981BA81EC93BA
:1002400023962296A881B981BA93AA93E881F9816D
:10025000A285B385BA93AA93EA81FB81A685AA9366
:10026000A981BA81EC91A881EA2BA981BA81EC938A
:1002700023962296A881B981BA93AA93E881F9813D
:10028000A485B585BA93AA93EA81FB81A685AA9332
:10029000A981BA81EC91A881EA2BA981BA81EC935A
:1002A0002396229622960895AA93AA81BB81BA9397
:1002B000AA93E881F981A281B381BA93AA93EA81D2
:1002C000FB81A481AA93A981BA81AC91E881E095D0
:1002D000EA23A981BA81EC932396229683E08A953A
:1002E000F1F7E981E061AE2FAA93A881AA931A934E
:1002F0000A9308EE13E0E0E0E0936002EA81EFB9D0
:10030000779909C00150104029F4E1E0E0936002C0
:10031000E0E002C0F5CFEFB1198108812396219664
:10032000A881AA93A881AA931A930A9308EE13E0CE
:10033000E0E0E0936002EA81EFB9779909C00150EB
:10034000104029F4E1E0E0936002E0E002C0F5CF64
:10035000EFB1198108812396219683E08A95F1F700
:10036000AA81BB81BA93AA93E881F981A281B38162
:10037000BA93AA93EA81FB81A481AA93A981BA8145
:10038000EC91A881EA2BA981BA81EC93239622965D
:1003900024960895AA93A981BA81BA93AA93E88171
:1003A000F981A281B381BA93AA93EA81FB81A481E6
:1003B000AA93A981BA81AC91E881E095EA23A98149
:1003C000BA81EC932396229683E08A95F1F7E8812F
:1003D000E062AE2FAA93A881AA931A930A9308EE1B
:1003E00013E0E0E0E0936002EA81EFB9779909C099
:1003F0000150104029F4E1E0E0936002E0E002C027
:10040000F5CFEFB11981088123962196A0E0AA9338
:10041000A881AA931A930A9308EE13E0E0E0E09310
:100420006002EA81EFB9779909C00150104029F4C0
:10043000E1E0E0936002E0E002C0F5CFEFB11981A6
:1004400008812396219683E08A95F1F7A981BA81E4
:10045000BA93AA93E881F981A281B381BA93AA934E
:10046000EA81FB81A481AA93A981BA81EC91A88138
:10047000EA2BA981BA81EC932396229623960895BC
:00000001FF
