:040000000C946E00EE
:100004000C9400000C9400000C9400000C9400006C
:100014000C9400000C9400000C9400000C9400005C
:100024000C9400000C9400000C9400000C9400004C
:100034000C9400000C9400000C9400000C9400003C
:100044000C9400000C9400000C9400000C9400002C
:10005400D5129D003F236302FC1C750C8F02B4046F
:10006400BB22CE1000000000000000005465737431
:100074000D000D4D696E203D20000D4D6178203D31
:1000840020000D41766572616765203D20000D46B4
:10009400696E6428496E64657829203D20004172A8
:1000A4007261792852657665727365293A0D00414B
:1000B4007272617928436C656172293A0D002D4E84
:1000C400414E000001002D4E414E00494E460000B5
:1000D40001006002C8000000F894EE27ECBBF1E0D8
:1000E400F5BFE5BFF8E1F1BDE1BD8DE0A2E0BB27BE
:1000F400ED938A95E9F780E098E0A0E6ED93019707
:10010400E9F7E4EDF0E085919591009761F0A59110
:10011400B59105901590BF01F00105900D920197DE
:10012400E1F7FB01F0CFEFE5EDBFE8E0EEBFC0E69D
:10013400D2E00C949D00AC978CE1A0E1B0E0E4E542
:10014400F0E00E94CE0200E010E020E030E050E059
:100154005BD0A0E7B0E00E9427020E946A025FD051
:100164000E947102A6E7B0E00E94780277D00E9454
:100174007102AEE7B0E00E9478028FD00E94710253
:10018400A6E8B0E00E9427020E947E02FE0170965B
:10019400FA93EA93EAE0F0E0FA93EA93ABEBB2E283
:1001A400B2D09F013A932A930E948102A2E9B0E05F
:1001B4000E947802D4D00E9485020E948502A2EA9D
:1001C400B0E00E94270250E05A3040F40E948902B5
:1001D4000E947E020E9485025F5FF6CF0E946A023F
:1001E400F8D00E948502A3EBB0E00E94270250E001
:1001F4005A3040F40E9489020E947E020E948502C5
:100204005F5FF6CFFFCFFFCFE0E0EBB9E8E1EAB9FB
:10021400E6E8E0BDE0E0E0BDE3E3E9B908950E946B
:10022400960221F0AC81BD81109719F4EFEFFFEF36
:10023400CCC001E010E00E94A20270F40E94A70268
:100244000E94FE02E217F30720F40E94A7022D91F8
:100254003C910F5F1F4FEFCFF901B7C00E94960288
:1002640021F0AC81BD81109719F4EFEFFFEFADC021
:1002740001E010E00E94A20270F40E94A7020E9412
:10028400FE022E173F0720F40E94A7022D913C91F5
:100294000F5F1F4FEFCFF90198C0BA93AA93249729
:1002A400E0E0E883E983EA83EB831A930A93A88561
:1002B400B985109721F0AE81BF81109719F4EFEF43
:1002C400FFEF1DC000E010E0EE81FF810E171F0755
:1002D40080F4F801A885B9850E94AF020E94B60295
:1002E4000E94D502EA83FB836C837D830F5F1F4FDB
:1002F400EBCFEE81FF810E94B6020E94DA021981DF
:1003040008812A960895BA93AA931A930A93AE8100
:10031400BF81109721F0AC81BD81109729F4EFEFD4
:10032400FFEF1981088153C000E010E00E94A2028F
:1003340088F40E94A702ED91FD91DF01EA81FB811F
:10034400EA17FB0721F4F8011981088140C00F5F07
:100354001F4FECCFEFEFFFEF1981088138C0BA933C
:10036400AA930E94C402AE81BF81109721F0AC8190
:10037400BD81129708F429C000E010E0EC81FD81F2
:10038400F695E7950E171F0700F50E94A7022D9119
:100394003C91F8010E94BD020F01EC81FD8131976F
:1003A400E01BF10BAE81BF810E94AF02D001ED933F
:1003B400FC93EC81FD813197E01BF10B0E94BD029F
:1003C400208331830F5F1F4FD9CF0E94C902289623
:1003D4000895BA93AA931A930A93AC81BD81109796
:1003E40021F0AA81BB81109709F415C000E010E048
:1003F400EA81FB810E171F0770F4F801AC81BD81FF
:10040400EE0FFF1FAE0FBF1FE0E0F0E0ED93FC9393
:100414000F5F1F4FEDCF1981088126960895AA9387
:100424005D9BFECFE881ECB921960895BA93AA9317
:100434001A93A981BA81ED91A983BA831E2FE03062
:1004440019F0A12FECDFF5CF10C0BA93AA931A9339
:10045400E981FA813196E983FA833197E4911E2F79
:10046400E03019F0A12FDBDFF3CFAAE0D8DF188149
:1004740023960895BA93AA93A991B991E991F99110
:1004840030962AF4E095F09531966DE26D93E894F8
:1004940080E197E20DD088EE93E00AD084E69927B4
:1004A40007D08AE005D06E2F10D066276C9308958C
:1004B4006627E817F90720F06395E81BF90BC9F7DD
:1004C400662311F416F008956894605D6D930895A1
:1004D400FE017096FA93EA93AAE0B0E008958F01C2
:1004E4001A930A93DE0112960C943C020E9427028E
:1004F400DE010E941802ECCFDE010C941802DE012A
:1005040012960C943C02A4E7B0E00C942702E52F69
:10051400F0E0DE015096EE0FFF1FAE0FBF1F0D91EE
:100524001C911A930A93EBCFBA93AA932BD0AE8162
:10053400BF81ED91FD919F01AE81BF811097089518
:10054400EC81FD810E171F070895F801AE81BF816C
:10055400EE0FFF1FAE0FBF1F0895EE0FFF1FAE0F6C
:10056400BF1FED91FD910895AA81BB818C819D816E
:10057400662777270895AE81BF81EE0FFF1FEA0F2C
:10058400FB1F08953A932A931A930A9308953B8183
:100594002A81198108810895AC0FBD1F05900D9221
:1005A4008A95E1F70895EA0FFB1F681F791F0895E4
:1005B4003F934F935F9300241124A00130E2AA0FCC
:1005C400BB1F881F991F001C111C441F551F0E1AA6
:1005D4001F0A460B570B28F40E0E1F1E461F571FEB
:1005E40001C0A1603A9559F7FD01BC01D001CA01CF
:1005F4005F914F913F910895ED91FC91119708956A
:00000001FF
