:0C0000000C942A000C9400000C940000EA
:10000C000C9400000C9400000C9400000C94000064
:10001C000C9400000C9400000C9400000C94000054
:10002C000C9400000C9400000C9400000C94000044
:10003C000C9400000C9400000C9400000C94000034
:10004C000C9400000C940000F894EE27ECBBF1E04B
:10005C00F5BFE5BFF8E1F1BDE1BD8DE0A2E0BB2746
:10006C00ED938A95E9F780E098E0A0E6ED9301978F
:10007C00E9F7EFE5EDBFE8E0EEBFC0E6D2E00C94A7
:10008C00470010E000E0E1E3F0E0FA93EA93A0E02F
:10009C00AA93A981BA811C90E881A1E00E94010178
:1000AC00E129A981BA81EC932396E1E3F0E0FA937C
:1000BC00EA93A0EFAA93A981BA81EC91A881EA2BCB
:1000CC00A981BA81EC93239618E7E7E3F0E0FA9361
:1000DC00EA93A12FAA93A981BA81AC91E881E0950A
:1000EC00EA23A981BA81EC932396E4E3F0E0FA9336
:1000FC00EA93A1E0AA93A981BA811C90E881A1E0BE
:10010C000E940101E095E121A981BA81EC9323962B
:10011C00E5E3F0E0FA93EA93A2E0AA93A981BA810D
:10012C00EC91A881EA2BA981BA81EC932396E3E3A5
:10013C00F0E0FA93EA93A2E0AA93A981BA81EC9138
:10014C00A881EA230E9411012396E03011F49098C3
:10015C0001C0909AE6E3F0E0FA93EA93A12FAA93F8
:10016C001A93A981AA931A9310E0E981F0E03097D1
:10017C0011F4E8E00AC0E981F0E0E17029F4E981CA
:10018C00E695E9831F5FF7CFE12F188122961E2F8A
:10019C00AA81BB81EC91A981EA23AE2FE12F0E94A9
:1001AC000901188124960E2FE2E3F0E0FA93EA930A
:1001BC00E4E0EA93EA93A02FAA931A93EA81A1E0D0
:1001CC000E940101E150AE2FEB810E9401011E2F14
:1001DC00AC81BD81AC91E095EA231E2EEB81A98107
:1001EC000E940101E123E129AC81BD81EC931881CE
:1001FC0026969DCFFFCFEE230E2EEA2F19F0EE0F91
:10020C000A94E9F70895EE230E2EEA2F19F0E695DD
:10021C000A94E9F70895EA17E1E009F0EE2708954A
:00000001FF
