:100000000C9451000C9400000C9400000C9400001F
:100010000C9400000C9400000C948C000C94840050
:100020000C9488000C9480000C9400000C94000048
:100030000C9400000C9400000C9400000C94000040
:100040000C9400000C9400000C9400000C94000030
:100050000C9400001027E80364000A00010000105F
:10006000000110000100000000000000693D0020B8
:100070002000436F6E6669672054696D65723100B8
:1000800001002D4E414E00494E46000080C0060042
:1000900004006600010060028000020064028C001F
:1000A0000000F894EE27ECBBF1E0F5BFE5BFF8E106
:1000B000F1BDE1BD8DE0A2E0BB27ED938A95E9F7A4
:1000C00080E098E0A0E6ED930197E9F7EEE8F0E034
:1000D00085919591009761F0A591B5910590159046
:1000E000BF01F00105900D920197E1F7FB01F0CF00
:1000F000EFE5EDBFE8E0EEBFC0E6D2E00C94BE0055
:10010000EA93E1E04E2E0BC0EA93E1E07E2E07C0B9
:10011000EA93E1E06E2E03C0EA93E1E09E2EE991BE
:100120001895EFB5EC7FEFBDEEB5E77EEEBDEEB511
:10013000E87FE260EEBDEFB5EF73EFBDEFB5EF7CAA
:10014000EFBDEEB5EF77EEBDEEB5EF7BEEBDE0E0D7
:10015000EDBDECBDEBBDEABDE9BDE8BDE7BDE6BD6B
:10016000E9B7E460E9BFE9B7EF7EE9BFE9B7E77F48
:10017000E9BFE9B7EF7DE9BF7894089531D0A52DA7
:100180000AD0CFDF7894442021F044245394A52D45
:1001900002D0F9CFFFCFAA936097E0E0EA93A0E006
:1001A0000E944401ACE6B0E00E948101E889F0E0E1
:1001B000FA93EA93DE0112960E94F600DE010E9495
:1001C0007201AFE6B0E00E948101E0E0EA93A1E0B5
:1001D0000E944401A2E7B0E00E9481016196089567
:1001E000A0E10E9494010E9451010895BA93AA933C
:1001F000A991B991E991F99130962AF4E095F09599
:1002000031966DE26D93E89480E197E20DD088EE2F
:1002100093E00AD084E6992707D08AE005D06E2FB4
:1002200010D066276C9308956627E817F90720F029
:100230006395E81BF90BC9F7662311F416F00895CE
:100240006894605D6D930895AA93E2B3EF70AE2F4A
:10025000E881E07FEA2BE2BB82E08A95F1F7929A8F
:1002600082E08A95F1F7929882E08A95F1F787C04B
:10027000AA93A881E9DFE881E295E883A881E4DF19
:1002800081E18A95F1F77BC0AA93E881F0E0EC590F
:10029000FD4FE081A981AE0FEBDF8980B880229607
:1002A0000895A2E00E94C101ACE0E2DFA1E00E945B
:1002B000C101E0E0BE2E8E2E0895AA93A881AA3037
:1002C00011F08A1448F0E0E0EA93B394AB2DDCDF40
:1002D000A881AA3009F453C08394909AA881C8DFFA
:1002E00090984DC0BA93AA931A93A981BA81ED91BF
:1002F000A983BA831E2FE03019F0A12FDEDFF5CFDE
:1003000010C0BA93AA931A93E981FA813196E983CE
:10031000FA833197E4911E2FE03019F0A12FCDDF41
:10032000F3CF188123960895AA93E1B3E06FE1BB60
:100330008A9A889A899A929890989198A880E88148
:10034000E058E0936602E881E054E0936702A4E19C
:10035000B0E00E94CE010E94C7010E94C7010E9426
:10036000C701A0E271DF81E28A95F1F7A8E280DFA0
:10037000A4E07EDFA5E87CDFA6E07ADF92DF2196AD
:1003800008950E943801A3E0B0E00C94CE01A0E3F0
:100390000E94240181E28A95F1F70895109639F0C0
:1003A000A8958AEF90E00197F1F71197C9F70895A2
:00000001FF
